:020000040800F2
:1000000000500020BD170008F5160008FB16000878
:1000100001170008071700080D170008000000006E
:10002000000000000000000000000000131700089E
:100030001F170008000000002B17000837170008E2
:10004000051800080518000805180008051800081C
:10005000051800080518000805180008051800080C
:1000600005180008051800080518000805180008FC
:1000700005180008051800080518000805180008EC
:1000800005180008051800080518000805180008DC
:1000900005180008051800080518000805180008CC
:1000A00005180008051800080518000805180008BC
:1000B00005180008051800080518000805180008AC
:1000C000051800080518000805180008051800089C
:1000D000051800080518000805180008051800088C
:1000E00005180008051800080518000800000000A1
:1000F0000000000000000000000000000000000000
:0C01000000000000000000005FF808F1A3
:10010C0010B5054C237833B9044B13B10448AFF345
:10011C0000800123237010BD980000200000000017
:10012C00683D000808B5034B1BB103490348AFF306
:10013C00008008BD000000009C000020683D000805
:10014C00034613F8012B002AFBD1181A013870470B
:10015C0080B485B000AF78607B68FB600A4B1B688D
:10016C000A4AA2FB03239A0CFB6802FB03F3FB6015
:10017C0000BFFB685A1EFA60002BFAD100BF00BF0B
:10018C001437BD4680BC704728000020819F5E1646
:10019C0080B582B000AF78607B68002B08D00A4B2A
:1001AC001B680A4A11880122184601F015FE07E067
:1001BC00054B1B68054A11880022184601F00CFEFD
:1001CC0000BF0837BD4680BDBC000020C000002029
:1001DC0080B582B000AF78607B68002B08D00A4BEA
:1001EC001B680A4A11880122184601F0F5FD07E048
:1001FC00054B1B68054A11880022184601F0ECFDDE
:10020C0000BF0837BD4680BDBC000020C2000020E6
:10021C0080B584B000AF0346FB710020FFF7B8FF38
:10022C00FB7903F01F03DBB23B7307F10C01642372
:10023C0001220A4802F086FA07F10C03591C6423C8
:10024C000122064802F0BAFB7B7BFB730120FFF70F
:10025C009FFFFB7B18461037BD4680BDC4000020B5
:10026C0080B584B000AF03463960FB711346BB7197
:10027C000020FFF78DFFFB7903F01F03DBB23B730C
:10028C0007F10C0164230122084802F05BFABB79E8
:10029C009AB264233968054802F090FB0120FFF7FD
:1002AC0077FF00BF1037BD4680BD00BFC4000020E3
:1002BC0080B584B000AF03460A46FB711346BB7190
:1002CC000020FFF765FFFB7943F02003DBB23B73A3
:1002DC00BB797B7307F10C0164230222044802F002
:1002EC0031FA0120FFF754FF00BF1037BD4680BD27
:1002FC00C400002080B584B000AF03463960FB71A8
:10030C001346BB710020FFF743FFFB7943F020033A
:10031C00DBB23B7307F10C0164230122084802F0A5
:10032C0011FABB799AB264233968054802F00AFACB
:10033C000120FFF72DFF00BF1037BD4680BD00BF69
:10034C00C400002080B584B000AF78600B46FB7011
:10035C000020FFF71DFFA023FB7307F10F0164239F
:10036C000122084802F0EEF9FB789AB2642379680E
:10037C00044802F0E7F90120FFF70AFF00BF10372D
:10038C00BD4680BDC400002080B500AFFF21E12038
:10039C00FFF78EFF00BF80BD80B500AFFF21E220CC
:1003AC00FFF786FF00BF80BD80B582B000AF07208D
:1003BC00FFF72EFF0346FB71FB7918460837BD4645
:1003CC0080BD000082B080B584B000AF7860FB6166
:1003DC000B467B8013463B80664B184607F11C038B
:1003EC005822194603F078F8634A7B681360634A15
:1003FC007B881380624A3B8813800120FFF7C8FE7C
:10040C000020FFF7E5FE052001F05AFA0821002034
:10041C00FFF74EFF3F210120FFF74AFF0321022087
:10042C00FFF746FF03210320FFF742FF03210420BF
:10043C00FFF73EFF02210520FFF73AFF0F210620B0
:10044C00FFF736FF0E210720FFF732FF00210820AF
:10045C00FFF72EFF00210920FFF72AFFE7233B734C
:10046C00E723FB72E723BB72E7237B72E7233B7224
:10047C0007F10803052219460A20FFF73BFFC223A8
:10048C003B73C223FB72C223BB72C2237B72C22397
:10049C003B7207F10803052219460B20FFF72AFFD0
:1004AC00C3210C20FFF704FFC4210D20FFF700FF30
:1004BC00C5210E20FFF7FCFEC6210F20FFF7F8FE2A
:1004CC00E7233B73E723FB72E723BB72E7237B72C3
:1004DC00E7233B7207F10803052219461020FFF7AA
:1004EC0009FF00211120FFF7E3FE00211220FFF786
:1004FC00DFFE00211320FFF7DBFE00211420FFF7A5
:10050C00D7FE00211520FFF7D3FE00211620FFF7A0
:10051C00CFFE00F087FA00211C20FFF7C9FE002156
:10052C001D20FFF7C5FE00F097FA0F210F2000F0F9
:10053C00ADF8032000F025F9012000F05BF9022052
:10054C0000F09EF900F0F0F8202000F0CFF800F059
:10055C0060FA4C2000F0B5F8FFF716FFFFF71CFF10
:10056C0000F0B6F900BF1037BD46BDE8804002B0C0
:10057C00704700BFC4000020BC000020C000002059
:10058C00C200002080B500AF0020FFF721FEFFF76E
:10059C00FBFEFFF701FF00BF80BD000080B586B0F9
:1005AC0000AF78600B46FB7000F033FAFB7819460D
:1005BC00786800F0CCF901F079F978610A233B6195
:1005CC0007F10D03012219460820FFF749FEFFF73A
:1005DC00EBFE0346FB73FB7B03F03003002B07D1D0
:1005EC0001F064F902467B69D31A3A699A42E7D85A
:1005FC0007F10B0107F10C030C4A184600F0D6F971
:10060C003B7BBB73094B1B78002B05D000F084F8A7
:10061C0003461A46064B1A7000F00CF8FFF7B4FEAE
:10062C00BB7B18461837BD4680BD00BFB400002008
:10063C00B500002080B500AF002000F058F903464B
:10064C00184680BD80B584B000AFC7E900013B46B9
:10065C00052219460A20FFF74DFE3B460522194696
:10066C001020FFF747FE2023FB73074B1B78FA7B08
:10067C00934228BF1346DBB219461120FFF718FE30
:10068C0000BF1037BD4680BDB600002080B582B0DB
:10069C0000AF03460A46FB711346BB71FB791B0185
:1006AC005AB297F9063003F00F035BB213435BB2F7
:1006BC00DBB219460420FFF7FBFD00BF0837BD462F
:1006CC0080BD80B584B000AF0346FB717F23FB7304
:1006DC00FA7BFB79934228BF1346DBB219460520FF
:1006EC00FFF7E6FD00BF1037BD4680BD80B485B076
:1006FC0000AF0346FB712023FB73FA7BFB7993421B
:10070C0028BF1346DAB2034B1A7000BF1437BD462C
:10071C0080BC7047B600002080B500AF6020FFF7AA
:10072C0077FD0346184680BD80B500AF1D20FFF74E
:10073C006FFD034623F00403DBB219461D20FFF7BF
:10074C00B7FD00211C20FFF7B3FD024B00221A70ED
:10075C0000BF80BDB700002080B582B000AF03465B
:10076C00FB71FB79002B04D03F210120FFF7A0FD8A
:10077C0003E000210120FFF79BFD00BF0837BD46B9
:10078C0080BD80B584B000AF0346FB710620FFF737
:10079C003FFD0346FB73FB7B23F00603FB73FB79E6
:1007AC00032B04D1FB7B43F00603FB7319E0FB79AD
:1007BC00022B04D1FB7B43F00403FB7311E0FB79A8
:1007CC00012B04D1FB7B43F00203FB7309E0FB79A3
:1007DC00002B06D0FB79042B03D1FB7B43F00603E3
:1007EC00FB73FB7B19460620FFF762FD00BF103739
:1007FC00BD4680BD80B584B000AF0346FB710023BD
:10080C00FB730620FFF704FD0346BB731B4B002252
:10081C001A70BB7B23F02803BB73FB79022B07D127
:10082C00164B00221A70BB7B43F02003BB730DE008
:10083C00FB79012B07D1114B01221A70BB7B43F0C2
:10084C000803BB7302E00D4B00221A70BB7B1946E8
:10085C000620FFF72DFD0620FFF7DAFC03461A46AB
:10086C00BB7B934202D10123FB7302E0034B0022BA
:10087C001A70FB7B18461037BD4680BDB8000020AF
:10088C0080B584B000AF0346FB710020FFF7C0FCBD
:10089C00034623F00C03FB73FB79002B0FD0FB7981
:1008AC00012B04D1FB7B43F00803FB7307E0FB7BBC
:1008BC0043F00803FB73FB7B43F00403FB73FB7BEC
:1008CC0019460020FFF7F4FC00BF1037BD4680BD71
:1008DC0080B500AF0020FFF79BFC034623F002031A
:1008EC00DBB219460020FFF7E3FC00BF80BD80B5EA
:1008FC0084B000AF7860FFF757FD0346FB73FB7BBA
:10090C0003F04003002B14BF01230023BB73BB7BFC
:10091C00002B17D07B68002B07D0FB7B5B08DBB26E
:10092C0003F00703DAB27B681A7040210720FFF747
:10093C00BFFCFB7B03F02003002B03D020210720FE
:10094C00FFF7B6FCBB7B18461037BD4680BD80B5A3
:10095C0082B000AF78600B46FB700020FFF738FCCC
:10096C000020FFF755FC034643F00203DBB223F0F3
:10097C000103DBB219460020FFF79AFC0120FFF7B8
:10098C0027FC9620FFF7E4FBFB7819467868FFF705
:10099C00D9FC0120FFF71CFC0F20FFF7D9FB00202E
:1009AC00FFF716FC00BF0837BD4680BD80B586B08A
:1009BC0000AFF860B9607A60FFF7F6FC0346FB7590
:1009CC00FB6800221A7070210720FFF771FCFB7D79
:1009DC0003F02003002B14BF01230023DAB2FB68C1
:1009EC001A70FB7D03F01003002B14BF01230023AE
:1009FC00DAB2BB681A70FB7D03F04003002B14BF06
:100A0C0001230023DAB27B681A7000BF1837BD4689
:100A1C0080BD80B500AF70210720FFF749FC00BFF7
:100A2C0080BD000080B582B000AF0020FFF7B0FBA6
:100A3C0050233B7173237B71391D642302220548BB
:100A4C0001F080FE0120FFF7A3FB00BF0837BD4675
:100A5C0080BD00BFC4000020F0B5A1B004AF07F109
:100A6C000803C349184602F04DFD07F10803184668
:100A7C00FFF766FB03469AB207F108010A23BD484B
:100A8C0002F095FB0020FFF7C3FB034687F86F309D
:100A9C0097F86F3003F00803002B13D097F86F30E2
:100AAC0003F00403002B06D007F10803B2491846E3
:100ABC0002F028FD0CE007F10803B049184602F0DB
:100ACC0021FD05E007F10803AD49184602F01AFDB7
:100ADC0007F108031846FFF733FB03469AB207F1F8
:100AEC0008010A23A34802F062FB0120FFF790FBE8
:100AFC00034687F86F3097F86F3003F00103002B33
:100B0C00CCBF01230023DBB21D4697F86F3003F0F6
:100B1C000203002BCCBF01230023DBB21E4697F847
:100B2C006F3003F00403002BCCBF01230023DBB296
:100B3C001A4697F86F3003F00803002BCCBF012343
:100B4C000023DBB2194697F86F3003F01003002B2B
:100B5C00CCBF01230023DBB21C4697F86F3003F0A7
:100B6C002003002BCCBF01230023DBB207F10800CC
:100B7C00039302940191009233462A46814902F074
:100B8C00C1FC07F108031846FFF7DAFA03469AB2DC
:100B9C0007F108010A23774802F009FB0220FFF74E
:100BAC0037FB034687F86F3097F86F3003F001037B
:100BBC00002BCCBF01230023DBB21D4697F86F300E
:100BCC0003F00203002BCCBF01230023DBB21E4633
:100BDC0097F86F3003F00403002BCCBF01230023E4
:100BEC00DBB21A4697F86F3003F00803002BCCBF2A
:100BFC0001230023DBB2194697F86F3003F0100382
:100C0C00002BCCBF01230023DBB21C4697F86F30BE
:100C1C0003F02003002BCCBF01230023DBB207F130
:100C2C000800039302940191009233462A465649D8
:100C3C0002F068FC07F108031846FFF781FA034637
:100C4C009AB207F108010A234A4802F0B0FA0320CD
:100C5C00FFF7DEFA034603F0030387F86F3097F8CB
:100C6C006F30023387F86F3097F86F2007F1080365
:100C7C004649184602F046FC07F108031846FFF7F0
:100C8C005FFA03469AB207F108010A23394802F0C9
:100C9C008EFA0520FFF7BCFA034687F86F3097F8F9
:100CAC006F3003F07F0207F108033949184602F050
:100CBC0029FC07F108031846FFF742FA03469AB2DB
:100CCC0007F108010A232B4802F071FA0620FFF7FE
:100CDC009FFA034687F86F3097F86F3003F00803DC
:100CEC00002B06D007F108032A49184602F00AFC2B
:100CFC0005E007F108032849184602F003FC07F148
:100D0C0008031846FFF71CFA03469AB207F10801CC
:100D1C000A23184802F04BFA97F86F3003F00603D9
:100D2C0087F86F3097F86F305B0887F86F3097F85B
:100D3C006F30002B06D107F108031849184602F052
:100D4C00E1FB3BE097F86F30012B06D107F108036C
:100D5C001349184602F0D6FB30E097F86F30022B9F
:100D6C0022D107F108030F49184602F0CBFB25E00E
:100D7C00803D00081C010020B43D0008D03D000857
:100D8C00EC3D0008003E0008443E0008903E000880
:100D9C00AC3E0008C03E0008D83E0008F03E0008FB
:100DAC00043F0008183F000897F86F30032B05D15B
:100DBC0007F10803D749184602F0A4FB07F1080312
:100DCC001846FFF7BDF903469AB207F108010A234A
:100DDC00D14802F0ECF93B46052219460A20FFF7F0
:100DEC003FFA3B791C46FB781D46BB787A783978FC
:100DFC0007F108000291019200932B462246C74945
:100E0C0002F080FB07F108031846FFF799F9034637
:100E1C009AB207F108010A23BF4802F0C8F93B4611
:100E2C00052219460B20FFF71BFA3B791C46FB7871
:100E3C001D46BB787A78397807F108000291019247
:100E4C0000932B462246B64902F05CFB07F10803DF
:100E5C001846FFF775F903469AB207F108010A2301
:100E6C00AD4802F0A4F93B46012219460C20FFF7CD
:100E7C00F7F93B781A4607F10803AA49184602F01D
:100E8C0041FB07F108031846FFF75AF903469AB2DB
:100E9C0007F108010A23A04802F089F93B46012218
:100EAC0019460D20FFF7DCF93B781A4607F10803C9
:100EBC009D49184602F026FB07F108031846FFF778
:100ECC003FF903469AB207F108010A23924802F04F
:100EDC006EF93B46012219460E20FFF7C1F93B780B
:100EEC001A4607F108039149184602F00BFB07F16B
:100EFC0008031846FFF724F903469AB207F10801D4
:100F0C000A23854802F053F93B46012219460F206B
:100F1C00FFF7A6F93B781A4607F1080384491846EF
:100F2C0002F0F0FA07F108031846FFF709F9034637
:100F3C009AB207F108010A23774802F038F93B46C8
:100F4C00052219461020FFF78BF93B791C46FB78DC
:100F5C001D46BB787A78397807F108000291019226
:100F6C0000932B462246734902F0CCFA07F1080392
:100F7C001846FFF7E5F803469AB207F108010A2371
:100F8C00654802F014F91120FFF742F9034687F87F
:100F9C006F3097F86F3003F03F0207F10803664992
:100FAC00184602F0AFFA07F108031846FFF7C8F825
:100FBC0003469AB207F108010A23574802F0F7F8E2
:100FCC001220FFF725F9034687F86F3097F86F303A
:100FDC0003F03F0207F108035849184602F092FA51
:100FEC0007F108031846FFF7ABF803469AB207F16E
:100FFC0008010A23484802F0DAF81320FFF708F931
:10100C00034687F86F3097F86F3003F03F0207F113
:10101C0008034B49184602F075FA07F10803184605
:10102C00FFF78EF803469AB207F108010A233A48F3
:10103C0002F0BDF81420FFF7EBF8034687F86F3089
:10104C0097F86F3003F03F0207F108033D4918464B
:10105C0002F058FA07F108031846FFF771F8034637
:10106C009AB207F108010A232B4802F0A0F81520C8
:10107C00FFF7CEF8034687F86F3097F86F3003F020
:10108C003F0207F108033049184602F03BFA07F11A
:10109C0008031846FFF754F803469AB207F1080103
:1010AC000A231D4802F083F81620FFF7B1F8034617
:1010BC0087F86F3097F86F3003F03F0207F10803A1
:1010CC002249184602F01EFA07F108031846FFF7EA
:1010DC0037F803469AB207F108010A230E4802F0CA
:1010EC0066F81C20FFF794F8034687F86F3097F8E2
:1010FC006F3003F00103002BCCBF01230023DBB2C4
:10110C001D4697F86F3003F00203002BCCBF012370
:10111C0000231DE02C3F00081C010020403F00086C
:10112C00703F0008A03F0008C83F0008F03F0008CF
:10113C0018400008404000086C4000088840000837
:10114C00A4400008C0400008DC400008F84000083B
:10115C00DBB21E4697F86F3003F00403002BCCBFB4
:10116C0001230023DBB21A4697F86F3003F0080313
:10117C00002BCCBF01230023DBB2194697F86F304C
:10118C0003F01003002BCCBF01230023DBB21C4661
:10119C0097F86F3003F02003002BCCBF0123002302
:1011AC00DBB207F1080003930294019100923346DD
:1011BC002A46364902F0A6F907F108031846FEF74D
:1011CC00BFFF03469AB207F108010A23304801F029
:1011DC00EEFF1D20FFF71CF8034687F86F3097F8D9
:1011EC006F3003F00403002B06D007F108032949E4
:1011FC00184602F087F905E007F10803264918465E
:10120C0002F080F907F108031846FEF799FF034630
:10121C009AB207F108010A231D4801F0C8FF97F89C
:10122C006F3003F00203002B06D007F108031B49B3
:10123C00184602F067F905E007F10803184918464B
:10124C0002F060F907F108031846FEF779FF034630
:10125C009AB207F108010A230D4801F0A8FF07F123
:10126C0008031049184602F04DF907F10803184617
:10127C00FEF766FF03469AB207F108010A230448F9
:10128C0001F095FF00BF7437BD46F0BD1441000856
:10129C001C010020604100087841000890410008C2
:1012AC00AC410008803D000890B597B016AF00F037
:1012BC00A5FA00F045F800F0E9F800F087F800F026
:1012CC00BBF81A4C6846231D5422194602F004F947
:1012DC002368102208211648FFF774F8FFF752F91B
:1012EC00144BD3E9002310461946FFF7ABF9002045
:1012FC00FFF732FA2220FFF7E4F920210E48FFF71E
:10130C004DF901224FF400510C4800F065FD4FF4EB
:10131C007A7000F0D5FA00224FF40051074800F023
:10132C005BFD4FF47A7000F0CBFAE6E7B0010020D9
:10133C0000080140000000200800002000100140BF
:10134C0080B590B000AF07F1180328220021184691
:10135C0002F0D0F83B1D00221A605A609A60DA60E5
:10136C001A610123BB614FF48033FB6100233B62A4
:10137C000123BB6202237B634FF48033BB634FF4C6
:10138C00E013FB6307F11803184600F03DFD03461C
:10139C00002B01D000F0DAF80F237B600223BB6036
:1013AC000023FB604FF480633B6100237B613B1D9A
:1013BC000221184600F0A8FF0346002B01D000F0D4
:1013CC00C5F800BF4037BD4680BD000080B500AFFA
:1013DC00174B184A1A60164B4FF482725A60144B12
:1013EC0000229A60124B0022DA60114B00221A6123
:1013FC000F4B00225A610E4B4FF400729A610C4B4A
:10140C002022DA610A4B00221A62094B00225A622E
:10141C00074B00229A62064B0A22DA62044801F05A
:10142C000DF90346002B01D000F090F800BF80BDF1
:10143C00B00100200030014080B500AF114B124AC2
:10144C001A60104B4FF416525A600E4B00229A60E1
:10145C000C4B0022DA600B4B00221A61094B0C2258
:10146C005A61084B00229A61064B0022DA6105484A
:10147C0001F050FE0346002B01D000F067F800BFCE
:10148C0080BD00BF6C0100200038014080B588B0E1
:10149C0000AF07F1100300221A605A609A60DA60FC
:1014AC00274B9B69264A43F010039361244B9B699D
:1014BC0003F01003FB60FB68214B9B69204A43F04F
:1014CC00200393611E4B9B6903F02003BB60BB6838
:1014DC001B4B9B691A4A43F004039361184B9B699D
:1014EC0003F004037B607B6800224FF40051154825
:1014FC0000F072FC00221821134800F06DFC4FF430
:10150C0000533B6101237B610023BB610223FB6120
:10151C0007F1100319460B4800F0DAFA18233B6167
:10152C0001237B610023BB610223FB6107F11003E4
:10153C001946054800F0CCFA00BF2037BD4680BDE7
:10154C0000100240001001400008014080B400AFC0
:10155C0072B600BFFEE7000080B485B000AF154B3B
:10156C009B69144A43F001039361124B9B6903F08E
:10157C000103BB60BB680F4BDB690E4A43F0805321
:10158C00D3610C4BDB6903F080537B607B680A4BA7
:10159C005B68FB60FB6823F0E063FB60FB6843F077
:1015AC000073FB60044AFB68536000BF1437BD46F0
:1015BC0080BC7047001002400000014080B588B02C
:1015CC0000AF786007F1100300221A605A609A602D
:1015DC00DA607B681B681B4A93422FD11A4B9B69BC
:1015EC00194A43F480539361174B9B6903F480535E
:1015FC00FB60FB68144B9B69134A43F00403936133
:10160C00114B9B6903F00403BB60BB68A0233B61D7
:10161C0002237B610323FB6107F1100319460B487E
:10162C0000F056FA40233B6100237B610023BB6131
:10163C0007F110031946054800F04AFA00BF20379D
:10164C00BD4680BD00300140001002400008014042
:10165C0080B588B000AF786007F1100300221A60E3
:10166C005A609A60DA607B681B681C4A934231D1DD
:10167C001B4B9B691A4A43F480439361184B9B693B
:10168C0003F48043FB60FB68154B9B69144A43F0E1
:10169C0004039361124B9B6903F00403BB60BB68AA
:1016AC004FF400733B6102237B610323FB6107F161
:1016BC00100319460B4800F00BFA4FF480633B61A2
:1016CC0000237B610023BB6107F110031946054819
:1016DC0000F0FEF900BF2037BD4680BD0038014048
:1016EC00001002400008014080B400AFFEE780B457
:1016FC0000AFFEE780B400AFFEE780B400AFFEE7BA
:10170C0080B400AFFEE780B400AF00BFBD4680BC24
:10171C00704780B400AF00BFBD4680BC704780B43A
:10172C0000AF00BFBD4680BC704780B500AF00F075
:10173C00ABF800BF80BD000080B586B000AF78600C
:10174C00144A154BD31A7B617B693B61134B1B68A5
:10175C00002B02D1114B124A1A60104B1A687B688D
:10176C0013443A699A4207D201F08CFE03460C22CC
:10177C001A604FF0FF3309E0084B1B68FB60074B06
:10178C001A687B681344054A1360FB6818461837BF
:10179C00BD4680BD00500020000400006001002008
:1017AC002002002080B400AF00BFBD4680BC704753
:1017BC000C480D490D4A002302E0D458C4500433A0
:1017CC00C4188C42F9D30A4A0A4C002301E0136076
:1017DC000432A242FBD3FFF7E5FF01F059FEFFF7FD
:1017EC0063FD70470000002098000020284300088B
:1017FC00980000201C020020FEE7000080B500AF1E
:10180C00084B1B68074A43F010031360032000F0D9
:10181C002BF90F2000F008F8FFF79EFE0023184666
:10182C0080BD00BF0020024080B582B000AF786060
:10183C00124B1A68124B1B7819464FF47A73B3FB90
:10184C00F1F3B2FBF3F3184600F035F90346002B25
:10185C0001D001230EE07B680F2B0AD80022796897
:10186C004FF0FF3000F00BF9064A7B681360002341
:10187C0000E0012318460837BD4680BD2800002033
:10188C00300000202C00002080B400AF054B1B78EA
:10189C001A46054B1B681344034A136000BFBD4630
:1018AC0080BC7047300000200802002080B400AFDC
:1018BC00024B1B681846BD4680BC704708020020CE
:1018CC0080B584B000AF7860FFF7F0FFB8607B683C
:1018DC00FB60FB68B3F1FF3F05D00A4B1B781A463F
:1018EC00FB681344FB6000BFFFF7E0FF0246BB68D8
:1018FC00D31AFA689A42F7D800BF00BF1037BD461A
:10190C0080BD00BF3000002080B485B000AF78608F
:10191C007B6803F00703FB600C4BDB68BB60BA68A9
:10192C004FF6FF031340BB60FB681A02BB681343FE
:10193C0043F0BF6343F40033BB60044ABB68D3601D
:10194C0000BF1437BD4680BC704700BF00ED00E0FF
:10195C0080B400AF044BDB681B0A03F00703184686
:10196C00BD4680BC704700BF00ED00E080B483B082
:10197C0000AF03463960FB7197F90730002B0ADB87
:10198C003B68DAB20C4997F907301201D2B20B441A
:10199C0083F800230AE03B68DAB20849FB7903F0CC
:1019AC000F03043B1201D2B20B441A7600BF0C3762
:1019BC00BD4680BC704700BF00E100E000ED00E0D8
:1019CC0080B489B000AFF860B9607A60FB6803F04E
:1019DC000703FB61FB69C3F10703042B28BF042336
:1019EC00BB61FB690433062B02D9FB69033B00E0A6
:1019FC0000237B614FF0FF32BB6902FA03F3DA4339
:101A0C00BB681A407B699A404FF0FF317B6901FA41
:101A1C0003F3D9437B680B40134318462437BD4668
:101A2C0080BC704780B582B000AF78607B68013BAA
:101A3C00B3F1807F01D301230FE00A4A7B68013B9D
:101A4C0053600F214FF0FF30FFF790FF054B002242
:101A5C009A60044B07221A60002318460837BD46CB
:101A6C0080BD00BF10E000E080B582B000AF7860B0
:101A7C007868FFF749FF00BF0837BD4680BD80B5C9
:101A8C0086B000AF0346B9607A60FB7300237B61BC
:101A9C00FFF75EFF78617A68B9687869FFF790FFA5
:101AAC00024697F90F3011461846FFF75FFF00BF4B
:101ABC001837BD4680BD80B582B000AF78607868BD
:101ACC00FFF7B0FF034618460837BD4680BD00003F
:101ADC0080B48BB000AF7860396000237B62002348
:101AEC003B6269E101227B6A02FA03F3FB613B680A
:101AFC001B68FA691340BB61BA69FB699A4240F0F2
:101B0C0058813B685B689A4A93425ED0984A9342EC
:101B1C0075D8984A934258D0964A93426FD8964AB1
:101B2C00934252D0944A934269D8944A93424CD0EF
:101B3C00924A934263D8924A934246D0904A934237
:101B4C005DD8122B2AD8122B59D801A252F823F0A7
:101B5C00D71B0008B11B0008C31B0008051C00089C
:101B6C000B1C00080B1C00080B1C00080B1C0008AD
:101B7C000B1C00080B1C00080B1C00080B1C00089D
:101B8C000B1C00080B1C00080B1C00080B1C00088D
:101B9C000B1C0008B91B0008CD1B0008794A9342A6
:101BAC0013D02CE03B68DB683B6229E03B68DB68C8
:101BBC0004333B6224E03B68DB6808333B621FE084
:101BCC003B68DB680C333B621AE03B689B68002B7C
:101BDC0002D104233B6213E03B689B68012B05D1C7
:101BEC0008233B627B68FA691A6109E008233B62AF
:101BFC007B68FA695A6103E000233B6200E000BF96
:101C0C00BB69FF2B01D87B6801E07B6804337B61E7
:101C1C00BB69FF2B02D87B6A9B0002E07B6A083B06
:101C2C009B003B617B691A680F213B6901FA03F346
:101C3C00DB431A40396A3B6901FA03F31A437B69A7
:101C4C001A603B685B6803F08053002B00F0B18096
:101C5C004D4B9B694C4A43F0010393614A4B9B6982
:101C6C0003F00103BB60BB68484A7B6A9B080233E4
:101C7C0052F82330FB607B6A03F003039B000F22B6
:101C8C0002FA03F3DB43FA681340FB607B68404ABB
:101C9C00934213D07B683F4A93420DD07B683E4AF7
:101CAC00934207D07B683D4A934201D1032306E05F
:101CBC00042304E0022302E0012300E000237A6AFB
:101CCC0002F0030292009340FA681343FB602F4921
:101CDC007B6A9B080233FA6841F823203B685B68F7
:101CEC0003F48033002B06D02D4B1A682C49BB69AA
:101CFC0013430B6006E02A4B1A68BB69DB43284987
:101D0C0013400B603B685B6803F40033002B06D078
:101D1C00234B5A682249BB6913434B6006E0204BA6
:101D2C005A68BB69DB431E4913404B603B685B68D8
:101D3C0003F48013002B06D0194B9A681849BB6921
:101D4C0013438B6006E0164B9A68BB69DB4314495E
:101D5C0013408B603B685B6803F40013002B21D0AD
:101D6C000F4BDA680E49BB691343CB6021E000BF0F
:101D7C000000321000003110000022100000211071
:101D8C000000121000001110001002400000014071
:101D9C0000080140000C01400010014000140140FB
:101DAC00000401400B4BDA68BB69DB430949134063
:101DBC00CB607B6A01337B623B681A687B6A22FAD0
:101DCC0003F3002B7FF48EAE00BF00BF2C37BD4653
:101DDC0080BC70470004014080B483B000AF7860D1
:101DEC000B467B8013467B707B78002B03D07A8864
:101DFC007B681A6103E07B881A047B681A6100BF58
:101E0C000C37BD4680BC704780B586B000AF78609B
:101E1C007B68002B01D101236CE27B681B6803F00B
:101E2C000103002B00F08780924B5B6803F00C03DE
:101E3C00042B0CD08F4B5B6803F00C03082B12D1D6
:101E4C008C4B5B6803F48033B3F5803F0BD1894B2B
:101E5C001B6803F40033002B6CD07B685B68002B91
:101E6C0068D1012346E27B685B68B3F5803F06D1FD
:101E7C00804B1B687F4A43F4803313602EE07B68F1
:101E8C005B68002B0CD17B4B1B687A4A23F48033A4
:101E9C001360784B1B68774A23F4802313601DE092
:101EAC007B685B68B3F5A02F0CD1724B1B68714A31
:101EBC0043F4802313606F4B1B686E4A43F48033EA
:101ECC0013600BE06B4B1B686A4A23F4803313607E
:101EDC00684B1B68674A23F4802313607B685B683C
:101EEC00002B13D0FFF7E2FC386108E0FFF7DEFCB3
:101EFC0002463B69D31A642B01D90323FAE15D4BEB
:101F0C001B6803F40033002BF0D014E0FFF7CEFC79
:101F1C00386108E0FFF7CAFC02463B69D31A642B10
:101F2C0001D90323E6E1534B1B6803F40033002B68
:101F3C00F0D100E000BF7B681B6803F00203002BAC
:101F4C0063D04C4B5B6803F00C03002B0BD0494B5C
:101F5C005B6803F00C03082B1CD1464B5B6803F445
:101F6C008033002B16D1434B1B6803F00203002B6C
:101F7C0005D07B681B69012B01D00123BAE13D4BD5
:101F8C001B6823F0F8027B685B69DB00394913435B
:101F9C000B603AE07B681B69002B20D0364B01228A
:101FAC001A60FFF783FC386108E0FFF77FFC0246FC
:101FBC003B69D31A022B01D903239BE12D4B1B68E0
:101FCC0003F00203002BF0D02A4B1B6823F0F8021D
:101FDC007B685B69DB00274913430B6015E0264BDC
:101FEC0000221A60FFF762FC386108E0FFF75EFC24
:101FFC0002463B69D31A022B01D903237AE11D4B0C
:10200C001B6803F00203002BF0D17B681B6803F004
:10201C000803002B3AD07B689B69002B19D0174B17
:10202C0001221A60FFF742FC386108E0FFF73EFC22
:10203C0002463B69D31A022B01D903235AE10D4BFB
:10204C005B6A03F00203002BF0D0012000F0D8FAF9
:10205C001CE00A4B00221A60FFF728FC38610FE0E5
:10206C00FFF724FC02463B69D31A022B08D9032341
:10207C0040E100BF00100240000042428004424296
:10208C009E4B5B6A03F00203002BE9D17B681B6853
:10209C0003F00403002B00F0A6800023FB75974B84
:1020AC00DB6903F08053002B0DD1944BDB69934A11
:1020BC0043F08053D361914BDB6903F08053BB60D9
:1020CC00BB680123FB758E4B1B6803F48073002BDC
:1020DC0018D18B4B1B688A4A43F480731360FFF74B
:1020EC00E5FB386108E0FFF7E1FB02463B69D31AD8
:1020FC00642B01D90323FDE0814B1B6803F480732F
:10210C00002BF0D07B68DB68012B06D17B4B1B6A64
:10211C007A4A43F0010313622DE07B68DB68002BE5
:10212C000CD1764B1B6A754A23F001031362734B77
:10213C001B6A724A23F0040313621CE07B68DB68A1
:10214C00052B0CD16D4B1B6A6C4A43F004031362D4
:10215C006A4B1B6A694A43F0010313620BE0674B3D
:10216C001B6A664A23F001031362644B1B6A634AC1
:10217C0023F0040313627B68DB68002B15D0FFF798
:10218C0095FB38610AE0FFF791FB02463B69D31AD5
:10219C0041F28832934201D90323ABE0574B1B6ABF
:1021AC0003F00203002BEED014E0FFF77FFB386145
:1021BC000AE0FFF77BFB02463B69D31A41F28832F7
:1021CC00934201D9032395E04C4B1B6A03F00203A5
:1021DC00002BEED1FB7D012B05D1484BDB69474A27
:1021EC0023F08053D3617B68DB69002B00F0818086
:1021FC00424B5B6803F00C03082B61D07B68DB69F6
:10220C00022B46D13F4B00221A60FFF74FFB38617F
:10221C0008E0FFF74BFB02463B69D31A022B01D9AE
:10222C00032367E0354B1B6803F00073002BF0D1E0
:10223C007B681B6AB3F5803F08D1304B5B6823F495
:10224C0000327B689B682D4913434B602B4B5B68BA
:10225C0023F474127B68196A7B685B6A0B43274909
:10226C0013434B60274B01221A60FFF71FFB3861A9
:10227C0008E0FFF71BFB02463B69D31A022B01D97E
:10228C00032337E01D4B1B6803F00073002BF0D0C9
:10229C002FE01C4B00221A60FFF708FB386108E0A6
:1022AC00FFF704FB02463B69D31A022B01D9032327
:1022BC0020E0124B1B6803F00073002BF0D118E0E8
:1022CC007B68DB69012B01D1012313E00B4B5B68AD
:1022DC00FB60FB6803F480327B681B6A9A4206D170
:1022EC00FB6803F470127B685B6A9A4201D001238D
:1022FC0000E0002318461837BD4680BD0010024090
:10230C00007000406000424280B584B000AF78603D
:10231C0039607B68002B01D10123D0E06A4B1B682C
:10232C0003F007033A689A4210D9674B1B6823F0F5
:10233C00070265493B6813430B60634B1B6803F052
:10234C0007033A689A4201D00123B8E07B681B6806
:10235C0003F00203002B20D07B681B6803F00403FE
:10236C00002B05D0594B5B68584A43F4E06353602B
:10237C007B681B6803F00803002B05D0534B5B688C
:10238C00524A43F460535360504B5B6823F0F002A5
:10239C007B689B684D4913434B607B681B6803F05B
:1023AC000103002B40D07B685B68012B07D1474BA6
:1023BC001B6803F40033002B15D101237FE07B68ED
:1023CC005B68022B07D1414B1B6803F00073002B99
:1023DC0009D1012373E03D4B1B6803F00203002B72
:1023EC0001D101236BE0394B5B6823F003027B685E
:1023FC005B68364913434B60FFF758FAF8600AE004
:10240C00FFF754FA0246FB68D31A41F28832934222
:10241C0001D9032353E02D4B5B6803F00C027B685E
:10242C005B689B009A42EBD1274B1B6803F00703B8
:10243C003A689A4210D2244B1B6823F007022249B7
:10244C003B6813430B60204B1B6803F007033A688F
:10245C009A4201D0012332E07B681B6803F004032D
:10246C00002B08D0194B5B6823F4E0627B68DB68B7
:10247C00164913434B607B681B6803F00803002B61
:10248C0009D0124B5B6823F460527B681B69DB003C
:10249C000E4913434B6000F021F802460B4B5B686E
:1024AC001B0903F00F030A49CB5C22FA03F3094A18
:1024BC001360094B1B681846FFF7B6F90023184642
:1024CC001037BD4680BD00BF002002400010024006
:1024DC00D4420008280000202C00002090B48AB0C0
:1024EC0000AF2A4B3C1D0FCB84E80F0040F20123B8
:1024FC003B800023FB610023BB6100237B62002334
:10250C007B6100233B62224B5B68FB61FB6903F040
:10251C000C03042B02D0082B03D02DE01D4B3B6287
:10252C002DE0FB699B0C03F00F0307F12802134409
:10253C0013F8243C7B61FB6903F48033002B13D02C
:10254C00134B5B685B0C03F0010307F12802134487
:10255C0013F8283CBB617B690E4A02FB03F2BB6992
:10256C00B2FBF3F37B6204E07B690B4A02FB03F3DF
:10257C007B627B6A3B6202E0064B3B6200BF3B6ABC
:10258C0018462837BD4690BC704700BFC4420008AF
:10259C000010024000127A0000093D0080B400AF28
:1025AC00024B1B681846BD4680BC704728000020B3
:1025BC0080B500AFFFF7F2FF0246054B5B681B0AC4
:1025CC0003F007030349CB5C22FA03F3184680BDE2
:1025DC0000100240E442000880B500AFFFF7DEFFB8
:1025EC000246054B5B68DB0A03F007030349CB5C2F
:1025FC0022FA03F3184680BD00100240E4420008A2
:10260C0080B485B000AF78600A4B1B680A4AA2FB05
:10261C0003235B0A7A6802FB03F3FB6000BFFB68D1
:10262C005A1EFA60002BF9D100BF00BF1437BD460B
:10263C0080BC704728000020D34D621080B582B05A
:10264C0000AF78607B68002B01D1012376E07B68BA
:10265C005B6A002B08D17B685B68B3F5827F09D07D
:10266C007B680022DA6105E07B6800221A617B68D6
:10267C0000225A617B6800229A627B6893F8513081
:10268C00DBB2002B06D17B68002283F850207868DF
:10269C00FEF794FF7B68022283F851207B681B684D
:1026AC001A687B681B6822F040021A607B685B68C2
:1026BC0003F482727B689B6803F404431A437B68BF
:1026CC00DB6803F400631A437B681B6903F00203A5
:1026DC001A437B685B6903F001031A437B689B69AF
:1026EC0003F400731A437B68DB6903F038031A4365
:1026FC007B681B6A03F0800342EA03017B689B6AD8
:10270C0003F400527B681B680A431A607B689B6960
:10271C001A0C7B681B6802F004025A607B681B6809
:10272C00DA697B681B6822F40062DA617B6800223C
:10273C005A657B68012283F851200023184608371C
:10274C00BD4680BD80B588B000AFF860B9603B6015
:10275C001346FB800023FB77FB6893F85030012B6A
:10276C0001D1022326E1FB68012283F85020FFF7F8
:10277C009DF8B861FB88FB82FB6893F85130DBB2A3
:10278C00012B02D00223FB770BE1BB68002B02D09C
:10279C00FB88002B02D10123FB7702E1FB680322AB
:1027AC0083F85120FB6800225A65FB68BA681A63EB
:1027BC00FB68FA889A86FB68FA88DA86FB6800223E
:1027CC009A63FB6800229A87FB680022DA87FB6811
:1027DC0000225A64FB6800221A64FB689B68B3F5FC
:1027EC00004F0FD1FB681B681A68FB681B6822F04E
:1027FC0040021A60FB681B681A68FB681B6842F48D
:10280C0080421A60FB681B681B6803F04003402B76
:10281C0007D0FB681B681A68FB681B6842F0400213
:10282C001A60FB68DB68B3F5006F4BD1FB685B6823
:10283C00002B02D0FB8A012B3ED1FB681B6B1A8844
:10284C00FB681B68DA60FB681B6B9A1CFB681A63DD
:10285C00FB68DB8E9BB2013B9AB2FB68DA862BE0FD
:10286C00FB681B689B6803F00203022B12D1FB6808
:10287C001B6B1A88FB681B68DA60FB681B6B9A1C65
:10288C00FB681A63FB68DB8E9BB2013B9AB2FB6858
:10289C00DA8611E0FFF70AF80246BB69D31A3A68E8
:1028AC009A4203D83B68B3F1FF3F02D13B68002B3F
:1028BC0002D10323FB7774E0FB68DB8E9BB2002B09
:1028CC00CED14CE0FB685B68002B02D0FB8A012B5D
:1028DC0040D1FB681A6BFB681B680C3312781A70BA
:1028EC00FB681B6B5A1CFB681A63FB68DB8E9BB284
:1028FC00013B9AB2FB68DA862CE0FB681B689B688C
:10290C0003F00203022B13D1FB681A6BFB681B68E4
:10291C000C3312781A70FB681B6B5A1CFB681A6319
:10292C00FB68DB8E9BB2013B9AB2FB68DA8611E046
:10293C00FEF7BCFF0246BB69D31A3A689A4203D829
:10294C003B68B3F1FF3F02D13B68002B02D103235C
:10295C00FB7726E0FB68DB8E9BB2002BCDD1BA69EE
:10296C003968F86800F0B8FB0346002B02D0FB680E
:10297C0020225A65FB689B68002B0AD100233B611F
:10298C00FB681B68DB683B61FB681B689B683B61F1
:10299C003B69FB685B6D002B02D00123FB7700E0E9
:1029AC0000BFFB68012283F85120FB68002283F8EA
:1029BC005020FB7F18462037BD4680BD80B588B0BF
:1029CC0002AFF860B9603B601346FB800023FB75D7
:1029DC00FB685B68B3F5827F12D1FB689B68002BA8
:1029EC000ED1FB68042283F85120FA883B680093CF
:1029FC001346BA68B968F86800F0F1F80346EAE0E3
:102A0C00FB6893F85030012B01D10223E3E0FB6803
:102A1C00012283F85020FEF749FF3861FB6893F8D8
:102A2C005130DBB2012B02D00223FB75CAE0BB682C
:102A3C00002B02D0FB88002B02D10123FB75C1E0D7
:102A4C00FB68042283F85120FB6800225A65FB685E
:102A5C00BA689A63FB68FA889A87FB68FA88DA87FF
:102A6C00FB6800221A63FB6800229A86FB6800222E
:102A7C00DA86FB6800221A64FB6800225A64FB6841
:102A8C009B68B3F5004F0FD1FB681B681A68FB6895
:102A9C001B6822F040021A60FB681B681A68FB680E
:102AAC001B6822F480421A60FB681B681B6803F0E9
:102ABC004003402B07D0FB681B681A68FB681B6837
:102ACC0042F040021A60FB68DB68002B62D12EE0FA
:102ADC00FB681B689B6803F00103012B15D1FB6895
:102AEC001B6803F10C02FB689B6B1278D2B21A7054
:102AFC00FB689B6B5A1CFB689A63FB68DB8F9BB271
:102B0C00013B9AB2FB68DA8711E0FEF7CFFE024672
:102B1C003B69D31A3A689A4203D83B68B3F1FF3F3A
:102B2C0002D13B68002B02D10323FB754AE0FB6802
:102B3C00DB8F9BB2002BCBD131E0FB681B689B6811
:102B4C0003F00103012B13D1FB681B68DA68FB68E7
:102B5C009B6B92B21A80FB689B6B9A1CFB689A6306
:102B6C00FB68DB8F9BB2013B9AB2FB68DA8711E002
:102B7C00FEF79CFE02463B69D31A3A689A4203D888
:102B8C003B68B3F1FF3F02D13B68002B02D103231A
:102B9C00FB7517E0FB68DB8F9BB2002BCDD13A693C
:102BAC003968F86800F046FA0346002B02D0FB683F
:102BBC0020225A65FB685B6D002B02D00123FB754C
:102BCC0000E000BFFB68012283F85120FB68002263
:102BDC0083F85020FB7D18461837BD4680BD80B564
:102BEC008CB000AFF860B9607A607B800123FB6227
:102BFC00002387F82B30FB6893F85030012B01D160
:102C0C0002238AE1FB68012283F85020FEF74EFE76
:102C1C007862FB6893F8513087F82330FB685B6867
:102C2C00FB617B887B8397F82330012B0FD0FB69EA
:102C3C00B3F5827F07D1FB689B68002B03D197F813
:102C4C002330042B03D0022387F82B305BE1BB68C5
:102C5C00002B05D07B68002B02D07B88002B03D186
:102C6C00012387F82B304EE1FB6893F85130DBB22F
:102C7C00042B03D0FB68052283F85120FB6800224B
:102C8C005A65FB687A689A63FB687A88DA87FB680E
:102C9C007A889A87FB68BA681A63FB687A88DA863E
:102CAC00FB687A889A86FB6800221A64FB6800220B
:102CBC005A64FB681B681B6803F04003402B07D069
:102CCC00FB681B681A68FB681B6842F040021A60BC
:102CDC00FB68DB68B3F5006F78D1FB685B68002B91
:102CEC0002D07B8B012B66D1FB681B6B1A88FB68AF
:102CFC001B68DA60FB681B6B9A1CFB681A63FB6829
:102D0C00DB8E9BB2013B9AB2FB68DA8653E0FB6820
:102D1C001B689B6803F00203022B1BD1FB68DB8E44
:102D2C009BB2002B16D0FB6A012B13D1FB681B6BDB
:102D3C001A88FB681B68DA60FB681B6B9A1CFB68C3
:102D4C001A63FB68DB8E9BB2013B9AB2FB68DA8696
:102D5C000023FB62FB681B689B6803F00103012BDB
:102D6C0019D1FB68DB8F9BB2002B14D0FB681B685E
:102D7C00DA68FB689B6B92B21A80FB689B6B9A1C9F
:102D8C00FB689A63FB68DB8F9BB2013B9AB2FB68D2
:102D9C00DA870123FB62FEF789FD02467B6AD31AB0
:102DAC00BA6B9A4207D8BB6BB3F1FF3F03D0032336
:102DBC0087F82B30A7E0FB68DB8E9BB2002BA6D1EB
:102DCC00FB68DB8F9BB2002BA1D17CE0FB685B68BE
:102DDC00002B02D07B8B012B6BD1FB681A6BFB6831
:102DEC001B680C3312781A70FB681B6B5A1CFB683F
:102DFC001A63FB68DB8E9BB2013B9AB2FB68DA86E6
:102E0C0057E0FB681B689B6803F00203022B1CD184
:102E1C00FB68DB8E9BB2002B17D0FB6A012B14D105
:102E2C00FB681A6BFB681B680C3312781A70FB6812
:102E3C001B6B5A1CFB681A63FB68DB8E9BB2013B55
:102E4C009AB2FB68DA860023FB62FB681B689B68FE
:102E5C0003F00103012B19D1FB68DB8F9BB2002B14
:102E6C0014D0FB681B68DA68FB689B6BD2B21A70D3
:102E7C00FB689B6B5A1CFB689A63FB68DB8F9BB2ED
:102E8C00013B9AB2FB68DA870123FB62FEF70EFD69
:102E9C0002467B6AD31ABA6B9A4203D8BB6BB3F166
:102EAC00FF3F02D1BB6B002B03D1032387F82B30E0
:102EBC0029E0FB68DB8E9BB2002BA2D1FB68DB8F79
:102ECC009BB2002B9DD17A6AB96BF86800F004F9BB
:102EDC000346002B06D0012387F82B30FB682022F9
:102EEC005A6510E0FB689B68002B0BD100237B61BB
:102EFC00FB681B68DB687B61FB681B689B687B61FC
:102F0C007B6900E000BFFB68012283F85120FB685D
:102F1C00002283F8502097F82B3018463037BD46E6
:102F2C0080BD000080B588B000AFF860B9603B6030
:102F3C001346FB71FEF7BAFC0246BB6A9B1A3A6851
:102F4C001344FB61FEF7B2FCB861394B1B685B01A3
:102F5C001B0DFA6902FB03F37B6154E03B68B3F190
:102F6C00FF3F50D0FEF7A2FC0246BB69D31AFA69A8
:102F7C009A4202D9FB69002B3DD1FB681B685A6849
:102F8C00FB681B6822F0E0025A60FB685B68B3F5D3
:102F9C00827F11D1FB689B68B3F5004F04D0FB68AE
:102FAC009B68B3F5806F07D1FB681B681A68FB68D8
:102FBC001B6822F040021A60FB689B6AB3F5005F45
:102FCC000FD1FB681B681A68FB681B6822F400525F
:102FDC001A60FB681B681A68FB681B6842F4005295
:102FEC001A60FB68012283F85120FB68002283F8E9
:102FFC005020032317E07B69002B01D10023FB61D8
:10300C007B69013B7B61FB681B689A68BB6813405A
:10301C00BA689A420CBF01230023DBB21A46FB7933
:10302C009A429BD1002318462037BD4680BD00BF75
:10303C002800002080B586B002AFF860B9607A60D5
:10304C00FB685B68B3F5827F11D1FB689B68B3F5B5
:10305C00004F04D0FB689B68B3F5806F07D1FB6809
:10306C001B681A68FB681B6822F040021A60FB6838
:10307C005B68B3F5827F17D1FB689B68B3F5806FF3
:10308C0012D17B680093BB6800220121F868FFF71E
:10309C0049FF0346002B1AD0FB685B6D43F02002FE
:1030AC00FB685A65032313E07B680093BB6800221E
:1030BC008021F868FFF736FF0346002B07D0FB682A
:1030CC005B6D43F02002FB685A65032300E000238C
:1030DC0018461037BD4680BD80B586B002AFF8608B
:1030EC00B9607A607B680093BB6800228021F86825
:1030FC00FFF718FF0346002B07D0FB685B6D43F00E
:10310C002002FB685A65032300E0002318461037A1
:10311C00BD4680BD80B582B000AF78607B68002B67
:10312C0001D101233FE07B6893F83D30DBB2002BEB
:10313C0006D17B68002283F83C207868FEF788FA79
:10314C007B68242283F83D207B681B68DA687B68E7
:10315C001B6822F40052DA60786800F005F97B688D
:10316C001B681A697B681B6822F490421A617B68A1
:10317C001B685A697B681B6822F02A025A617B68BB
:10318C001B68DA687B681B6842F40052DA607B6863
:10319C0000221A647B68202283F83D207B68202261
:1031AC0083F83E20002318460837BD4680BD80B505
:1031BC008AB002AFF860B9603B601346FB80002315
:1031CC007B61FB6893F83D30DBB2202B7CD1BB6874
:1031DC00002B02D0FB88002B01D1012375E0FB688A
:1031EC0093F83C30012B01D102236EE0FB680122E5
:1031FC0083F83C20FB6800221A64FB68212283F8C8
:10320C003D20FEF753FB7861FB68FA889A84FB68D3
:10321C00FA88DA84FB689B68B3F5805F08D1FB6899
:10322C001B69002B04D10023FB61BB68BB6103E06D
:10323C00BB68FB610023BB61FB68002283F83C2068
:10324C002AE03B6800937B6900228021F86800F03B
:10325C0040F80346002B01D0032336E0FB69002B1A
:10326C000BD1BB691B881A46FB681B68C2F30802AA
:10327C005A60BB690233BB6107E0FB691A78FB68D3
:10328C001B685A60FB690133FB61FB68DB8C9BB2EA
:10329C00013B9AB2FB68DA84FB68DB8C9BB2002B97
:1032AC00CFD13B6800937B6900224021F86800F085
:1032BC0010F80346002B01D0032306E0FB68202204
:1032CC0083F83D20002300E0022318462037BD463A
:1032DC0080BD80B584B000AFF860B9603B60134628
:1032EC00FB712CE0BB69B3F1FF3F28D0BB69002B0D
:1032FC0007D0FEF7DBFA02463B68D31ABA699A424A
:10330C001DD2FB681B68DA68FB681B6822F4D0725C
:10331C00DA60FB681B685A69FB681B6822F00102C3
:10332C005A61FB68202283F83D20FB68202283F839
:10333C003E20FB68002283F83C2003230FE0FB684F
:10334C001B681A68BB681340BA689A420CBF012309
:10335C000023DBB21A46FB799A42C3D000231846ED
:10336C001037BD4680BD000080B584B000AF7860DA
:10337C007B681B681B6923F440517B68DA687B68A7
:10338C001B680A431A617B689A687B681B691A433D
:10339C007B685B691343BB607B681B68DB6823F449
:1033AC00B05323F00C037A681268B9680B43D360EE
:1033BC007B681B685B6923F440717B689A697B6846
:1033CC001B680A435A617B681B682C4A934203D1E1
:1033DC00FFF702F9F86002E0FFF7EAF8F860FA6824
:1033EC0013469B0013449A001A447B685B689B004D
:1033FC00B2FBF3F3224AA2FB03235B091901FA681F
:10340C0013469B0013449A001A447B685B689B002C
:10341C00B2FBF3F21A4BA3FB02035B09642000FB23
:10342C0003F3D31A1B013233154AA2FB03235B09A6
:10343C0003F0F0031944FA6813469B0013449A00F6
:10344C001A447B685B689B00B2FBF3F20C4BA3FB4A
:10345C0002035B09642000FB03F3D31A1B01323314
:10346C00074AA2FB03235B0903F00F027B681B686E
:10347C000A449A6000BF1037BD4680BD0038014039
:10348C001F85EB51014B1868704700BF34000020BA
:10349C0070B500260C4D0D4C641BA410A64209D12E
:1034AC0000F05CFC00260A4D0A4C641BA410A642DA
:1034BC0005D170BD55F8043B98470136EEE755F839
:1034CC00043B98470136F2E72043000820430008EC
:1034DC0020430008244300080A44914200F1FF33C2
:1034EC0000D1704710B511F8014B914203F8014F10
:1034FC00F9D110BD03460244934200D1704703F842
:10350C00011BF9E70EB46FF0004100B59CB01DAB88
:10351C0002900690079104910848094953F8042B2E
:10352C000591006802A9019300F068F80022029B43
:10353C001A701CB05DF804EB03B070473400002027
:10354C000802FFFF2DE9F0478E6882469E420C462A
:10355C0090461F4638D88A8912F4906F32D025686D
:10356C0009690133A5EB010965694B4405EB450578
:10357C0005EBD5756D109D4238BF1D46530531D5F1
:10358C00294600F045FB064650B90C234FF0FF309E
:10359C00CAF80030A38943F04003A381BDE8F0874B
:1035AC004A462169FFF798FFA38923F4906343F0FF
:1035BC008003A38126614E4426603E466561A5EBDF
:1035CC000905A560BE4200D93E46324641462068F8
:1035DC0000F0B8FAA36822689B1B32440020A36059
:1035EC002260DBE72A4600F06DFB06460028E1D19D
:1035FC005046216900F0C0FAC7E700002DE9F04FF2
:10360C0098468B8907461B060D4614469DB00ED571
:10361C000B6963B9402100F0FBFA2860286120B9DE
:10362C000C233B604FF0FF30D1E040236B61002353
:10363C00099320238DF8293030234FF00109CDF860
:10364C000C80DFF8A4818DF82A3023469A4613F8B3
:10365C00012B0AB1252AF9D1BAEB040B0BD05B462E
:10366C00224629463846FFF76DFF013000F0AA804C
:10367C00099A5A4409929AF80030002B00F0A28063
:10368C0000234FF0FF32CDE905230AF1010A049320
:10369C0007938DF853301A935446052214F8011BE6
:1036AC00514800F041FA049AD8B9D00644BF2023FF
:1036BC008DF85330110744BF2B238DF853309AF8F3
:1036CC0000302A2B15D0544600204FF00A0C079AD4
:1036DC00214611F8013B303B092B4ED9B0B1079272
:1036EC0014E0A0EB080309FA03F31343A246049376
:1036FC00D2E7039B191D1B680391002BBBBF5B42D8
:10370C0042F0020207930793B8BF049223782E2B42
:10371C000CD163782A2B35D1039B02341A1D1B68FC
:10372C000392002BB8BF4FF0FF330593DFF8C8A00E
:10373C0003225046217800F0F7F940B14023A0EB6A
:10374C000A0003FA00F0049B01340343049314F8B9
:10375C00011B062225488DF8281000F0E5F90028F9
:10376C0038D0234B1BBB039B073323F007030833D1
:10377C000393099B3344099367E70C4601200CFB28
:10378C000232A5E700234FF00A0C194601340593C9
:10379C00204610F8012B303A092A03D9002BC5D04A
:1037AC000591C3E7044601230CFB0121F0E703ABB1
:1037BC0000932A4638460F4B04A9AFF30080421CF5
:1037CC000646D6D1AB895B063FF52CAF09981DB0E8
:1037DC00BDE8F08F03AB00932A463846054B04A98D
:1037EC0000F07CF8EBE700BFEC420008F642000862
:1037FC000000000051350008F24200082DE9F047A6
:10380C00164699468A680B6907469342B8BF134619
:10381C00336091F843200C46DDF820800AB1013367
:10382C0033602368990642BF3368023333602568DE
:10383C0015F0060506D104F1190AE36832689B1AE3
:10384C00AB4228DC94F84320131E226818BF0123D6
:10385C0092062DD44946384604F14302C047013044
:10386C0020D02368E56803F00603042B18BF00255D
:10387C0032684FF00006A36808BFAD1A226908BF72
:10388C0025EAE5759342C4BF9B1AED181A34B5426C
:10389C001AD1002008E00123524649463846C04759
:1038AC00013003D14FF0FF30BDE8F0870135C4E79C
:1038BC003020E11881F843005A1C94F8451022443A
:1038CC00023382F84310C5E70123224649463846A5
:1038DC00C0470130E6D00136D9E700002DE9FF479B
:1038EC000C46277E9146782F80469A460C9904F117
:1038FC00430207D8622F0AD8002F00F0D980582F26
:10390C0000F0A48004F1420684F842703AE0A7F17A
:10391C006303152BF6D801A050F823F08139000869
:10392C0095390008113900081139000811390008BF
:10393C0011390008953900081139000811390008AF
:10394C001139000811390008A33A0008C5390008DC
:10395C00853A00081139000811390008C53A0008E9
:10396C0011390008C539000811390008113900084F
:10397C008D3A00080B6804F142061A1D1B680A6098
:10398C0084F842300123A4E0256808682E0600F173
:10399C0004030AD505680B60002D03DA2D236D4254
:1039AC0084F843300A235E4819E015F0400F05688F
:1039BC000B6018BF2DB2EFE70B682568181D086067
:1039CC00280601D51D6802E06906FBD51D886F2FFE
:1039DC000CBF08230A235248002184F84310666860
:1039EC00002EA8BF2168A660A4BF21F004012160AD
:1039FC000DB9002E4DD01646B5FBF3F103FB115754
:103A0C00C75D06F8017D2F46BB420D46F4D9082B45
:103A1C000BD12368DF0708D5236961689942DEBFA3
:103A2C00302306F8013C06F1FF36921B22614B460F
:103A3C0021464046CDF800A003AAFFF7DFFE013077
:103A4C004CD14FF0FF3004B0BDE8F087344884F817
:103A5C0045700E68236856F8045B1F060E6014D57B
:103A6C00D90744BF43F0200323601DB9236823F01A
:103A7C00200323601023AFE7236843F02003236067
:103A8C007823284884F84530E3E75E0648BFADB29A
:103A9C00E6E71646BBE70B6826681D1D60690D60DE
:103AAC0035061B6801D5186002E07106FBD518803D
:103ABC00002316462361BAE70B681A1D0A601E68BC
:103ACC0000213046626800F02FF808B1801B60605E
:103ADC0063682361002384F84330A8E732464946E3
:103AEC0040462369D0470130ABD023689B0713D4E1
:103AFC00E068039B9842B8BF1846A4E701233246FE
:103B0C0049464046D04701309BD00135E3680399C4
:103B1C005B1AAB42F2DCEBE7002504F11906F5E782
:103B2C00FD4200080E430008034610B5C9B202441A
:103B3C009342184601D1002003E0047801338C42F3
:103B4C00F6D110BD884210B501EB020402D98442B3
:103B5C00234607D8431EA14208D011F8012B03F8C5
:103B6C00012FF8E7014602448A4200D110BD13F838
:103B7C00014D02F8014DF7E738B50546002943D051
:103B8C0051F8043C0C1F002BB8BFE41800F0D0F81F
:103B9C001E4A1368104633B9636014602846BDE8AA
:103BAC00384000F0CBB8A3420AD92168621893427E
:103BBC0001BF1A685B685218226063600460EDE70D
:103BCC001A465B680BB1A342FAD911685018A0428F
:103BDC000BD120680144501883421160DED1186863
:103BEC005B68014411605360D8E702D90C232B6049
:103BFC00D4E7206821188B4201BF19685B6809184B
:103C0C00216063605460C9E738BD00BF64010020C7
:103C1C00F8B5CD1C25F0030508350C2D38BF0C2547
:103C2C00002D064601DBA94203D90C23336000208A
:103C3C00F8BD00F07DF821490A6814469CB9204F64
:103C4C003B6823B92146304600F062F838602946BB
:103C5C00304600F05DF8431C23D10C233046336012
:103C6C0000F06CF8E3E723685B1B17D40B2B03D92C
:103C7C0023601C44256004E06368A2420CBF0B6007
:103C8C005360304600F05AF804F10B00231D20F06D
:103C9C000700C21ACCD01B1AA350C9E7224664688D
:103CAC00CCE7C41C24F00304A042E3D0211A304614
:103CBC0000F02EF80130DDD1CFE700BF6401002009
:103CCC0068010020F8B5074614460E4621B9114686
:103CDC00BDE8F840FFF79CBF22B9FFF74DFF254622
:103CEC002846F8BD00F030F8A0420FD221463846E5
:103CFC00FFF78EFF05460028F2D031462246FFF72B
:103D0C00EBFB31463846FFF737FFE9E73546E7E787
:103D1C0038B50023054D044608462B60FDF70CFD15
:103D2C00431C02D12B6803B1236038BD0C02002068
:103D3C00014800F011B800BF14020020014800F047
:103D4C000CB800BF1402002051F8043C181F002BC3
:103D5C00BCBF0B58C018704770477047F8B500BF10
:103D6C00F8BC08BC9E467047F8B500BFF8BC08BC50
:043D7C009E467047A8
:103D80000D0A2A2A2A2A2A2A2A2A2A2A2A2A2A2AD0
:103D90002A2A2A2A2A2A2A2A2A2A2A2A2A2A2A2A83
:103DA0002A2A2A2A2A2A2A2A2A2A2A2A2A2A2A2A73
:103DB0000D0A00004352433A0D0A0909456E61623B
:103DC0006C65642C2032204279746573200D0A00E2
:103DD0004352433A0D0A0909456E61626C65642CD1
:103DE00020312042797465200D0A00004352433A85
:103DF0000D0A090944697361626C6564200D0A004B
:103E0000454E41413A0D0A090950303A0925640DE1
:103E10000A090950313A0925640D0A090950323A54
:103E20000925640D0A090950333A0925640D0A0968
:103E30000950343A0925640D0A090950353A092513
:103E4000640D0A00454E5F5258414444523A0D0AEF
:103E5000090950303A0925640D0A090950313A0917
:103E600025640D0A090950323A0925640D0A090929
:103E700050333A0925640D0A090950343A0925647A
:103E80000D0A090950353A0925640D0A00000000A1
:103E900053455455505F41573A0D0A09092564208E
:103EA0006279746573200D0A0000000052465F437A
:103EB000483A0D0A09092564204348200D0A0000EC
:103EC0004461746120526174653A0D0A0909324DEA
:103ED000627073200D0A00004461746120526174A5
:103EE000653A0D0A0909314D627073200D0A000010
:103EF00052465F5057523A0D0A09092D3138644233
:103F0000200D0A0052465F5057523A0D0A09092DFA
:103F100031326442200D0A0052465F5057523A0D2A
:103F20000A09092D366442200D0A000052465F50EE
:103F300057523A0D0A0909306442200D0A00000068
:103F400052585F50697065302041646472733A0D55
:103F50000A0909253032582C253032582C253032A8
:103F6000582C253032582C2530325820200D0A008C
:103F700052585F50697065312041646472733A0D24
:103F80000A0909253032582C253032582C25303278
:103F9000582C253032582C2530325820200D0A005C
:103FA00052585F50697065322041646472733A0DF3
:103FB0000A090978782C78782C78782C78782C2550
:103FC00030325820200D0A0052585F506970653316
:103FD0002041646472733A0D0A090978782C787864
:103FE0002C78782C78782C2530325820200D0A0037
:103FF00052585F50697065342041646472733A0DA1
:104000000A090978782C78782C78782C78782C25FF
:1040100030325820200D0A0052585F5069706535C3
:104020002041646472733A0D0A090978782C787813
:104030002C78782C78782C2530325820200D0A00E6
:1040400054582041646472733A0D0A0909253032CC
:10405000582C253032582C253032582C25303258E7
:104060002C2530325820200D0A00000052585F5095
:10407000575F50303A0D0A0909256420627974654A
:1040800073200D0A0000000052585F50575F5031F6
:104090003A0D0A09092564206279746573200D0AB6
:1040A0000000000052585F50575F50323A0D0A0925
:1040B000092564206279746573200D0A00000000F0
:1040C00052585F50575F50333A0D0A090925642052
:1040D0006279746573200D0A0000000052585F5029
:1040E000575F50343A0D0A090925642062797465D6
:1040F00073200D0A0000000052585F50575F503582
:104100003A0D0A09092564206279746573200D0A45
:104110000000000044594E50445F706970653A0DCC
:104120000A090950303A0925640D0A090950313A43
:104130000925640D0A090950323A0925640D0A0956
:104140000950333A0925640D0A090950343A092502
:10415000640D0A090950353A0925640D0A0000006A
:10416000454E5F44504C3A0D0A0909456E61626C38
:104170006564200D0A000000454E5F44504C3A0D26
:104180000A090944697361626C6564200D0A0000C4
:10419000454E5F41434B5F5041593A0D0A0909456D
:1041A0006E61626C6564200D0A000000454E5F413F
:1041B000434B5F5041593A0D0A09094469736162E2
:1041C0006C6564200D0A00000D0A2D2D2D2D2D2D5E
:1041D0002D2D2D2D2D2D2D2D2D2D2D2D2D2D2D2D0F
:1041E0002D2D2D0D0A0000005354415455532072BB
:1041F00065673A0D0A090952585F44523A09092580
:10420000640D0A090954585F44533A090925640D9D
:104210000A09094D41585F52543A090925640D0AAB
:10422000090952585F505F4E4F3A0925640D0A093B
:104230000954585F46554C4C3A0925640D0A000054
:10424000434F4E464947207265673A0D0A090950A7
:1042500057525F55503A090925640D0A0909505211
:10426000494D5F52583A0925640D0A004649464FA8
:1042700020537461747573207265673A0D0A0909D9
:1042800054585F46554C4C3A090925640D0A0909F2
:1042900054585F454D5054593A090925640D0A098F
:1042A0000952585F46554C4C3A090925640D0A09D4
:1042B0000952585F454D5054593A090925640D0A71
:1042C0000000000002030405060708090A0B0C0D94
:1042D0000E0F101000000000000000000102030497
:1042E000060708090000000001020304232D302BFB
:1042F0002000686C4C0065666745464700303132E7
:10430000333435363738394142434445460030313D
:10431000323334353637383961626364656600009C
:04432000310100085F
:044324000D0100087F
:104328007A000000000000004D696C692053616E3E
:104338006979652121210D0A0000000000000000B4
:1043480000000000000000000024F400100000003D
:1043580001000000380000200000000000000000FC
:104368000000000000000000000000000000000045
:104378000000000000000000000000000000000035
:104388000000000000000000000000000000000025
:104398000000000000000000000000000000000015
:1043A8000000000000000000000000000000000005
:0843B8000000000000000000FD
:04000005080017BD1B
:00000001FF
