:020000040800F2
:1000000000500020F1170008291700082F170008DA
:10001000351700083B1700084117000800000000D2
:10002000000000000000000000000000471700086A
:1000300053170008000000005F1700086B17000846
:10004000391800083918000839180008391800084C
:10005000391800083918000839180008391800083C
:10006000391800083918000839180008391800082C
:10007000391800083918000839180008391800081C
:10008000391800083918000839180008391800080C
:1000900039180008391800083918000839180008FC
:1000A00039180008391800083918000839180008EC
:1000B00039180008391800083918000839180008DC
:1000C00039180008391800083918000839180008CC
:1000D00039180008391800083918000839180008BC
:1000E0003918000839180008391800080000000005
:1000F0000000000000000000000000000000000000
:0C01000000000000000000005FF808F1A3
:10010C0010B5054C237833B9044B13B10448AFF345
:10011C0000800123237010BD780000200000000037
:10012C009C3D000808B5034B1BB103490348AFF3D2
:10013C00008008BD000000007C0000209C3D0008F1
:10014C00034613F8012B002AFBD1181A013870470B
:10015C0080B485B000AF78607B68FB600A4B1B688D
:10016C000A4AA2FB03239A0CFB6802FB03F3FB6015
:10017C0000BFFB685A1EFA60002BFAD100BF00BF0B
:10018C001437BD4680BC704708000020819F5E1666
:10019C0080B582B000AF78607B68002B08D00A4B2A
:1001AC001B680A4A11880122184601F02FFE07E04D
:1001BC00054B1B68054A11880022184601F026FEE3
:1001CC0000BF0837BD4680BDA4000020A800002059
:1001DC0080B582B000AF78607B68002B08D00A4BEA
:1001EC001B680A4A11880122184601F00FFE07E02D
:1001FC00054B1B68054A11880022184601F006FEC3
:10020C0000BF0837BD4680BDA4000020AA00002016
:10021C0080B584B000AF0346FB710020FFF7B8FF38
:10022C00FB7903F01F03DBB23B7307F10C01642372
:10023C0001220A4802F0A0FA07F10C03591C6423AE
:10024C000122064802F0D4FB7B7BFB730120FFF7F5
:10025C009FFFFB7B18461037BD4680BDAC000020CD
:10026C0080B584B000AF03463960FB711346BB7197
:10027C000020FFF78DFFFB7903F01F03DBB23B730C
:10028C0007F10C0164230122084802F075FABB79CE
:10029C009AB264233968054802F0AAFB0120FFF7E3
:1002AC0077FF00BF1037BD4680BD00BFAC000020FB
:1002BC0080B584B000AF03460A46FB711346BB7190
:1002CC000020FFF765FFFB7943F02003DBB23B73A3
:1002DC00BB797B7307F10C0164230222044802F002
:1002EC004BFA0120FFF754FF00BF1037BD4680BD0D
:1002FC00AC00002080B584B000AF03463960FB71C0
:10030C001346BB710020FFF743FFFB7943F020033A
:10031C00DBB23B7307F10C0164230122084802F0A5
:10032C002BFABB799AB264233968054802F024FA97
:10033C000120FFF72DFF00BF1037BD4680BD00BF69
:10034C00AC00002080B584B000AF78600B46FB7029
:10035C0000F008FA03461A46FB78934203D300F0E8
:10036C0001FA034600E0FB78FB730020FFF710FF57
:10037C006123BB7307F10E0164230122084802F0CC
:10038C00FBF9FB7B9AB264237968054802F030FBD9
:10039C000120FFF7FDFE00BF1037BD4680BD00BF3A
:1003AC00AC00002080B500AFFF21E120FFF780FFFB
:1003BC0000BF80BD80B500AFFF21E220FFF778FFC2
:1003CC0000BF80BD80B582B000AF0720FFF720FFD3
:1003DC000346FB71FB7918460837BD4680BD00000B
:1003EC0082B080B584B000AF7860FB610B467B8037
:1003FC0013463B80664B184607F11C0358221946DE
:10040C0003F084F8634A7B681360634A7B8813802B
:10041C00624A3B8813800120FFF7BAFE0020FFF7E9
:10042C00D7FE052001F066FA08210020FFF740FFF7
:10043C003F210120FFF73CFF03210220FFF738FF8B
:10044C0003210320FFF734FF03210420FFF730FFC3
:10045C0002210520FFF72CFF0F210620FFF728FFB4
:10046C000E210720FFF724FF00210820FFF720FFB3
:10047C0000210920FFF71CFFE7233B73E723FB72E6
:10048C00E723BB72E7237B72E7233B7207F1080378
:10049C00052219460A20FFF72DFFC2233B73C22306
:1004AC00FB72C223BB72C2237B72C2233B7207F165
:1004BC000803052219460B20FFF71CFFC3210C2053
:1004CC00FFF7F6FEC4210D20FFF7F2FEC5210E202A
:1004DC00FFF7EEFEC6210F20FFF7EAFEE7233B7382
:1004EC00E723FB72E723BB72E7237B72E7233B72A4
:1004FC0007F10803052219461020FFF7FBFE002127
:10050C001120FFF7D5FE00211220FFF7D1FE0021AC
:10051C001320FFF7CDFE00211420FFF7C9FE0021A8
:10052C001520FFF7C5FE00211620FFF7C1FE00F0D5
:10053C0047FA00211C20FFF7BBFE00211D20FFF70E
:10054C00B7FE00F057FA0F210F2000F0C5F803207A
:10055C0000F047F9012000F07DF9022000F0C0F90D
:10056C0000F012F9202000F0E7F800F020FA4C20FF
:10057C0000F0CDF8FFF716FFFFF71CFF00F0D8F9DD
:10058C0000BF1037BD46BDE8804002B0704700BFC9
:10059C00AC000020A4000020A8000020AA0000202D
:1005AC0080B500AF0020FFF733FE034643F0030392
:1005BC00DBB219460020FFF77BFE0B4BD3E900237F
:1005CC00134304D0052208490A20FFF793FEFFF7D6
:1005DC00E9FEFFF7EFFE0120FFF7FAFD9620FFF78B
:1005EC00B7FD00BF80BD00BF9800002080B500AFF4
:1005FC00002000F0ACF90346184680BD80B584B0ED
:10060C0000AF78600B46FB70FB7819467868FFF7F3
:10061C0099FE1720FFF7FCFD034603F00103FB7363
:10062C00FFF7C8FE00F0A8F8FB7B002B14BF0123DA
:10063C000023DBB218461037BD4680BD80B584B0B0
:10064C0000AF0146C7E900230B46FB73FB7B002B75
:10065C0004D1D7E900231C49C1E90023FB7B062BFD
:10066C002DD8FB7B012B08D8FB7B184AD35C394671
:10067C0005221846FFF73EFE07E0FB7B134AD35CCE
:10068C00394601221846FFF735FEFB7B104AD35C36
:10069C00104A127811461846FFF70AFE0220FFF79F
:1006AC00B7FD03465AB2FB7B012101FA03F35BB29F
:1006BC0013435BB2DBB219460220FFF7F9FD00BF12
:1006CC001037BD4680BD00BF9800002018430008BD
:1006DC0020430008A000002080B582B000AF034684
:1006EC000A46FB711346BB71FB791B015AB297F991
:1006FC00063003F00F035BB213435BB2DBB2194657
:10070C000420FFF7D5FD00BF0837BD4680BD80B57E
:10071C0084B000AF0346FB717F23FB73FA7BFB793C
:10072C00934228BF1346DBB219460520FFF7C0FDE4
:10073C0000BF1037BD4680BD80B485B000AF034606
:10074C00FB712023FB73FA7BFB79934228BF134682
:10075C00DAB2034B1A7000BF1437BD4680BC704729
:10076C00A000002080B400AF024B1B781846BD4699
:10077C0080BC7047A000002080B500AF6020FFF760
:10078C0047FD0346184680BD80B500AF1D20FFF71E
:10079C003FFD034623F00403DBB219461D20FFF78F
:1007AC0087FD00211C20FFF783FD024B00221A70ED
:1007BC0000BF80BDA100002080B582B000AF034611
:1007CC00FB71FB79002B04D03F210120FFF770FD5A
:1007DC0003E000210120FFF76BFD00BF0837BD4689
:1007EC0080BD80B584B000AF0346FB710620FFF7D7
:1007FC000FFD0346FB73FB7B23F00603FB73FB79B6
:10080C00032B04D1FB7B43F00603FB7319E0FB794C
:10081C00022B04D1FB7B43F00403FB7311E0FB7947
:10082C00012B04D1FB7B43F00203FB7309E0FB7942
:10083C00002B06D0FB79042B03D1FB7B43F0060382
:10084C00FB73FB7B19460620FFF732FD00BF103708
:10085C00BD4680BD80B584B000AF0346FB7100235C
:10086C00FB730620FFF7D4FC0346BB731B4B002223
:10087C001A70BB7B23F02803BB73FB79022B07D1C7
:10088C00164B00221A70BB7B43F02003BB730DE0A8
:10089C00FB79012B07D1114B01221A70BB7B43F062
:1008AC000803BB7302E00D4B00221A70BB7B194688
:1008BC000620FFF7FDFC0620FFF7AAFC03461A46AC
:1008CC00BB7B934202D10123FB7302E0034B00225A
:1008DC001A70FB7B18461037BD4680BDA200002065
:1008EC0080B584B000AF0346FB710020FFF790FC8D
:1008FC00034623F00C03FB73FB79002B0FD0FB7921
:10090C00012B04D1FB7B43F00803FB7307E0FB7B5B
:10091C0043F00803FB73FB7B43F00403FB73FB7B8B
:10092C0019460020FFF7C4FC00BF1037BD4680BD40
:10093C0080B500AF0020FFF76BFC034623F00203E9
:10094C00DBB219460020FFF7B3FC00BF80BD80B5B9
:10095C0084B000AF7860FFF735FD0346FB73FB7B7B
:10096C0003F04003002B14BF01230023BB73BB7B9C
:10097C00002B17D07B68002B07D0FB7B5B08DBB20E
:10098C0003F00703DAB27B681A7040210720FFF7E7
:10099C008FFCFB7B03F02003002B03D020210720CE
:1009AC00FFF786FCBB7B18461037BD4680BD80B573
:1009BC0000AF70210720FFF77BFC00BF80BD00005B
:1009CC0080B582B000AF0020FFF7E2FB50233B71F3
:1009DC0073237B71391D64230222054801F0CCFE80
:1009EC000120FFF7D5FB00BF0837BD4680BD00BF17
:1009FC00AC000020F0B5A1B004AF07F10803C34967
:100A0C00184602F099FD07F108031846FFF798FB0A
:100A1C0003469AB207F108010A23BD4802F0E1FB34
:100A2C000020FFF7F5FB034687F86F3097F86F301F
:100A3C0003F00803002B13D097F86F3003F0040376
:100A4C00002B06D007F10803B249184602F074FDDA
:100A5C000CE007F10803B049184602F06DFD05E003
:100A6C0007F10803AD49184602F066FD07F10803CB
:100A7C001846FFF765FB03469AB207F108010A23F3
:100A8C00A34802F0AEFB0120FFF7C2FB034687F838
:100A9C006F3097F86F3003F00103002BCCBF0123AC
:100AAC000023DBB21D4697F86F3003F00203002BD6
:100ABC00CCBF01230023DBB21E4697F86F3003F046
:100ACC000403002BCCBF01230023DBB21A4697F89A
:100ADC006F3003F00803002BCCBF01230023DBB2E3
:100AEC00194697F86F3003F01003002BCCBF01238D
:100AFC000023DBB21C4697F86F3003F02003002B69
:100B0C00CCBF01230023DBB207F10800039302944E
:100B1C000191009233462A46814902F00DFD07F1FE
:100B2C0008031846FFF70CFB03469AB207F10801BD
:100B3C000A23774802F055FB0220FFF769FB0346B6
:100B4C0087F86F3097F86F3003F00103002BCCBFA0
:100B5C0001230023DBB21D4697F86F3003F002032C
:100B6C00002BCCBF01230023DBB21E4697F86F305D
:100B7C0003F00403002BCCBF01230023DBB21A4685
:100B8C0097F86F3003F00803002BCCBF0123002330
:100B9C00DBB2194697F86F3003F01003002BCCBF73
:100BAC0001230023DBB21C4697F86F3003F02003BF
:100BBC00002BCCBF01230023DBB207F10800039309
:100BCC0002940191009233462A46564902F0B4FC35
:100BDC0007F108031846FFF7B3FA03469AB207F178
:100BEC0008010A234A4802F0FCFA0320FFF710FB25
:100BFC00034603F0030387F86F3097F86F30023326
:100C0C0087F86F3097F86F2007F1080346491846AC
:100C1C0002F092FC07F108031846FFF791FA03461D
:100C2C009AB207F108010A23394802F0DAFA0520D2
:100C3C00FFF7EEFA034687F86F3097F86F3003F042
:100C4C007F0207F108033949184602F075FC07F1D9
:100C5C0008031846FFF774FA03469AB207F1080125
:100C6C000A232B4802F0BDFA0620FFF7D1FA0346FF
:100C7C0087F86F3097F86F3003F00803002B06D01D
:100C8C0007F108032A49184602F056FC05E007F163
:100C9C0008032849184602F04FFC07F108031846D0
:100CAC00FFF74EFA03469AB207F108010A231848D7
:100CBC0002F097FA97F86F3003F0060387F86F305D
:100CCC0097F86F305B0887F86F3097F86F30002B10
:100CDC0006D107F108031849184602F02DFC3BE039
:100CEC0097F86F30012B06D107F10803134918460A
:100CFC0002F022FC30E097F86F30022B22D107F182
:100D0C0008030F49184602F017FC25E0B43D000813
:100D1C0004010020E83D0008043E0008203E0008C5
:100D2C00343E0008783E0008C43E0008E03E00084F
:100D3C00F43E00080C3F0008243F0008383F000830
:100D4C004C3F000897F86F30032B05D107F10803CF
:100D5C00D749184602F0F0FB07F108031846FFF7D5
:100D6C00EFF903469AB207F108010A23D14802F0C1
:100D7C0038FA3B46052219460A20FFF771FA3B79EF
:100D8C001C46FB781D46BB787A78397807F1080049
:100D9C000291019200932B462246C74902F0CCFBEC
:100DAC0007F108031846FFF7CBF903469AB207F18F
:100DBC0008010A23BF4802F014FA3B4605221946E3
:100DCC000B20FFF74DFA3B791C46FB781D46BB7890
:100DDC007A78397807F108000291019200932B463A
:100DEC002246B64902F0A8FB07F108031846FFF7A4
:100DFC00A7F903469AB207F108010A23AD4802F09D
:100E0C00F0F93B46012219460C20FFF729FA3B78F2
:100E1C001A4607F10803AA49184602F08DFB07F1A0
:100E2C0008031846FFF78CF903469AB207F108013C
:100E3C000A23A04802F0D5F93B46012219460D20A1
:100E4C00FFF70EFA3B781A4607F108039D4918463E
:100E5C0002F072FB07F108031846FFF771F903461D
:100E6C009AB207F108010A23924802F0BAF93B46FC
:100E7C00012219460E20FFF7F3F93B781A4607F1C9
:100E8C0008039149184602F057FB07F1080318466E
:100E9C00FFF756F903469AB207F108010A23854871
:100EAC0002F09FF93B46012219460F20FFF7D8F9B3
:100EBC003B781A4607F108038449184602F03CFBBC
:100ECC0007F108031846FFF73BF903469AB207F1FE
:100EDC0008010A23774802F084F93B46052219469B
:100EEC001020FFF7BDF93B791C46FB781D46BB78FB
:100EFC007A78397807F108000291019200932B4619
:100F0C002246734902F018FB07F108031846FFF755
:100F1C0017F903469AB207F108010A23654802F053
:100F2C0060F91120FFF774F9034687F86F3097F8D2
:100F3C006F3003F03F0207F108036649184602F0D0
:100F4C00FBFA07F108031846FFF7FAF803469AB2C2
:100F5C0007F108010A23574802F043F91220FFF762
:100F6C0057F9034687F86F3097F86F3003F03F025C
:100F7C0007F108035849184602F0DEFA07F1080396
:100F8C001846FFF7DDF803469AB207F108010A2369
:100F9C00484802F026F91320FFF73AF9034687F880
:100FAC006F3097F86F3003F03F0207F108034B499D
:100FBC00184602F0C1FA07F108031846FFF7C0F80B
:100FCC0003469AB207F108010A233A4802F009F9DC
:100FDC001420FFF71DF9034687F86F3097F86F3030
:100FEC0003F03F0207F108033D49184602F0A4FA4A
:100FFC0007F108031846FFF7A3F803469AB207F166
:10100C0008010A232B4802F0ECF81520FFF700F931
:10101C00034687F86F3097F86F3003F03F0207F103
:10102C0008033049184602F087FA07F108031846FE
:10103C00FFF786F803469AB207F108010A231D4808
:10104C0002F0CFF81620FFF7E3F8034687F86F306D
:10105C0097F86F3003F03F0207F108032249184656
:10106C0002F06AFA07F108031846FFF769F803461D
:10107C009AB207F108010A230E4802F0B2F81C20BC
:10108C00FFF7C6F8034687F86F3097F86F3003F018
:10109C000103002BCCBF01230023DBB21D4697F8C4
:1010AC006F3003F00203002BCCBF012300231DE0A3
:1010BC00603F000804010020743F0008A43F0008B2
:1010CC00D43F0008FC3F0008244000084C400008B6
:1010DC0074400008A0400008BC400008D84000083C
:1010EC00F4400008104100082C410008DBB21E46F9
:1010FC0097F86F3003F00403002BCCBF01230023BF
:10110C00DBB21A4697F86F3003F00803002BCCBF04
:10111C0001230023DBB2194697F86F3003F010035C
:10112C00002BCCBF01230023DBB21C4697F86F3099
:10113C0003F02003002BCCBF01230023DBB207F10B
:10114C000800039302940191009233462A463649D3
:10115C0002F0F2F907F108031846FEF7F1FF034617
:10116C009AB207F108010A23304802F03AF81D2020
:10117C00FFF74EF8034687F86F3097F86F3003F09F
:10118C000403002B06D007F108032949184602F086
:10119C00D3F905E007F108032649184602F0CCF90B
:1011AC0007F108031846FEF7CBFF03469AB207F186
:1011BC0008010A231D4802F014F897F86F3003F069
:1011CC000203002B06D007F108031B49184602F056
:1011DC00B3F905E007F108031849184602F0ACF919
:1011EC0007F108031846FEF7ABFF03469AB207F166
:1011FC0008010A230D4801F0F4FF07F10803104918
:10120C00184602F099F907F108031846FEF798FF03
:10121C0003469AB207F108010A23044801F0E1FFE2
:10122C0000BF7437BD46F0BD4841000804010020E2
:10123C0094410008AC410008C4410008E04100089A
:10124C00B43D000884B080B500AF07F1080C8CE801
:10125C000F00074B184607F108034422194602F009
:10126C0055F900BFBD46BDE8804004B0704700BFD3
:10127C0004010020F0B597B016AF00F0D9FA00F0D9
:10128C006DF800F011F900F0AFF800F0E3F82C4C19
:10129C006846231D5422194602F038F9236810229F
:1012AC0008212848FFF79CF8274E6D4606F11004DC
:1012BC000FCC0FC50FCC0FC50FCC0FC523682B60FF
:1012CC0096E80F00FFF7BEFF0020FFF775FA22200B
:1012DC00FFF71DFA1D4BD3E900230120FFF7AEF9F0
:1012EC00FFF75EF9FFF782F90346002B1CD0202193
:1012FC001748FFF783F90346002B15D0142320223F
:10130C001349114801F06DFF1423202211490E4896
:10131C0001F067FF00224FF400510F4800F076FDFA
:10132C004FF47A7000F0E6FA01224FF400510A48AB
:10133C0000F06CFD4FF47A7000F0DCFAD2E700BFDD
:10134C0098010020000801405401002000000020FA
:10135C00F0010020F84200080010014080B590B068
:10136C0000AF07F1180328220021184602F0DCF820
:10137C003B1D00221A605A609A60DA601A610123E0
:10138C00BB614FF48033FB6100233B620123BB62E2
:10139C0002237B634FF48033BB634FF4E013FB6396
:1013AC0007F11803184600F049FD0346002B01D045
:1013BC0000F0E6F80F237B600223BB600023FB6088
:1013CC004FF480633B6100237B613B1D0221184677
:1013DC0000F0B4FF0346002B01D000F0D1F800BFA1
:1013EC004037BD4680BD000080B500AF174B184A92
:1013FC001A60164B4FF482725A60144B00229A609A
:10140C00124B0022DA60114B00221A610F4B0022A2
:10141C005A610E4B4FF400729A610C4B2022DA6128
:10142C000A4B00221A62094B00225A62074B002217
:10143C009A62064B0A22DA62044801F019F9034653
:10144C00002B01D000F09CF800BF80BD980100205B
:10145C000030014080B500AF114B124A1A60104B9E
:10146C004FF416525A600E4B00229A600C4B00221D
:10147C00DA600B4B00221A61094B0C225A61084BA3
:10148C0000229A61064B0022DA61054801F05CFEED
:10149C000346002B01D000F073F800BF80BD00BFE5
:1014AC00540100200048004080B588B000AF07F11F
:1014BC00100300221A605A609A60DA602D4B9B6907
:1014CC002C4A43F0100393612A4B9B6903F01003E1
:1014DC00FB60FB68274B9B69264A43F02003936112
:1014EC00244B9B6903F02003BB60BB68214B9B69B9
:1014FC00204A43F0040393611E4B9B6903F00403E1
:10150C007B607B681B4B9B691A4A43F00803936111
:10151C00184B9B6903F008033B603B6800224FF4B7
:10152C000051154800F072FC00221821134800F0FD
:10153C006DFC4FF400533B6101237B610023BB61C5
:10154C000223FB6107F1100319460B4800F0DAFA8D
:10155C0018233B6101237B610023BB610223FB61E8
:10156C0007F110031946054800F0CCFA00BF2037EC
:10157C00BD4680BD00100240001001400008014033
:10158C0080B400AF72B600BFFEE7000080B485B037
:10159C0000AF154B9B69144A43F001039361124B46
:1015AC009B6903F00103BB60BB680F4BDB690E4A00
:1015BC0043F08053D3610C4BDB6903F080537B60A9
:1015CC007B680A4B5B68FB60FB6823F0E063FB60A5
:1015DC00FB6843F00073FB60044AFB68536000BF78
:1015EC001437BD4680BC704700100240000001401B
:1015FC0080B588B000AF786007F1100300221A6044
:10160C005A609A60DA607B681B681B4A93422FD140
:10161C001A4B9B69194A43F480539361174B9B698E
:10162C0003F48053FB60FB68144B9B69134A43F033
:10163C0004039361114B9B6903F00403BB60BB680B
:10164C00A0233B6102237B610323FB6107F11003A1
:10165C0019460B4800F056FA40233B6100237B618E
:10166C000023BB6107F110031946054800F04AFA44
:10167C0000BF2037BD4680BD003001400010024045
:10168C000008014080B588B000AF786007F1100306
:10169C0000221A605A609A60DA607B681B681C4AE8
:1016AC00934231D11B4BDB691A4A43F48023D3613B
:1016BC00184BDB6903F48023FB60FB68154B9B69BB
:1016CC00144A43F008039361124B9B6903F008031F
:1016DC00BB60BB684FF480633B6102237B610323D7
:1016EC00FB6107F1100319460B4800F00BFA4FF49D
:1016FC0000633B6100237B610023BB6107F1100396
:10170C001946054800F0FEF900BF2037BD4680BDE4
:10171C000048004000100240000C014080B400AFB3
:10172C00FEE780B400AFFEE780B400AFFEE780B404
:10173C0000AFFEE780B400AFFEE780B400AF00BF9F
:10174C00BD4680BC704780B400AF00BFBD4680BCB6
:10175C00704780B400AF00BFBD4680BC704780B5F9
:10176C0000AF00F0ABF800BF80BD000080B586B0C4
:10177C0000AF7860144A154BD31A7B617B693B61CF
:10178C00134B1B68002B02D1114B124A1A60104BE1
:10179C001A687B6813443A699A4207D201F08CFEAE
:1017AC0003460C221A604FF0FF3309E0084B1B680C
:1017BC00FB60074B1A687B681344054A1360FB688F
:1017CC0018461837BD4680BD0050002000040000AC
:1017DC00480100203802002080B400AF00BFBD4695
:1017EC0080BC70470C480D490D4A002302E0D458C8
:1017FC00C4500433C4188C42F9D30A4A0A4C00234F
:10180C0001E013600432A242FBD3FFF7E5FF01F0C5
:10181C0059FEFFF72FFD70470000002078000020D4
:10182C007C4300087800002038020020FEE700000E
:10183C0080B500AF084B1B68074A43F010031360D8
:10184C00032000F02BF90F2000F008F8FFF79EFEA4
:10185C000023184680BD00BF0020024080B582B036
:10186C0000AF7860124B1A68124B1B7819464FF474
:10187C007A73B3FBF1F3B2FBF3F3184600F035F9CE
:10188C000346002B01D001230EE07B680F2B0AD8F6
:10189C00002279684FF0FF3000F00BF9064A7B68A4
:1018AC001360002300E0012318460837BD4680BDB5
:1018BC0008000020100000200C00002080B400AFB5
:1018CC00054B1B781A46054B1B681344034A1360DF
:1018DC0000BFBD4680BC70471000002024020020D1
:1018EC0080B400AF024B1B681846BD4680BC7047E5
:1018FC002402002080B584B000AF7860FFF7F0FFC1
:10190C00B8607B68FB60FB68B3F1FF3F05D00A4B06
:10191C001B781A46FB681344FB6000BFFFF7E0FF1F
:10192C000246BB68D31AFA689A42F7D800BF00BFC8
:10193C001037BD4680BD00BF1000002080B485B0BC
:10194C0000AF78607B6803F00703FB600C4BDB682F
:10195C00BB60BA684FF6FF031340BB60FB681A020A
:10196C00BB68134343F0BF6343F40033BB60044ACA
:10197C00BB68D36000BF1437BD4680BC704700BF46
:10198C0000ED00E080B400AF044BDB681B0A03F0F1
:10199C0007031846BD4680BC704700BF00ED00E051
:1019AC0080B483B000AF03463960FB7197F9073000
:1019BC00002B0ADB3B68DAB20C4997F907301201AD
:1019CC00D2B20B4483F800230AE03B68DAB2084930
:1019DC00FB7903F00F03043B1201D2B20B441A76CD
:1019EC0000BF0C37BD4680BC704700BF00E100E073
:1019FC0000ED00E080B489B000AFF860B9607A60A7
:101A0C00FB6803F00703FB61FB69C3F10703042BBD
:101A1C0028BF0423BB61FB690433062B02D9FB6985
:101A2C00033B00E000237B614FF0FF32BB6902FAFD
:101A3C0003F3DA43BB681A407B699A404FF0FF31DD
:101A4C007B6901FA03F3D9437B680B4013431846B7
:101A5C002437BD4680BC704780B582B000AF78603B
:101A6C007B68013BB3F1807F01D301230FE00A4A6D
:101A7C007B68013B53600F214FF0FF30FFF790FF65
:101A8C00054B00229A60044B07221A60002318466B
:101A9C000837BD4680BD00BF10E000E080B582B0C5
:101AAC0000AF78607868FFF749FF00BF0837BD4684
:101ABC0080BD80B586B000AF0346B9607A60FB7319
:101ACC0000237B61FFF75EFF78617A68B9687869FB
:101ADC00FFF790FF024697F90F3011461846FFF7B3
:101AEC005FFF00BF1837BD4680BD80B582B000AF28
:101AFC0078607868FFF7B0FF034618460837BD4694
:101B0C0080BD000080B48BB000AF786039600023DA
:101B1C007B6200233B6269E101227B6A02FA03F3D8
:101B2C00FB613B681B68FA691340BB61BA69FB69CE
:101B3C009A4240F058813B685B689A4A93425ED067
:101B4C00984A934275D8984A934258D0964A9342F1
:101B5C006FD8964A934252D0944A934269D8944A89
:101B6C0093424CD0924A934263D8924A934246D0C5
:101B7C00904A93425DD8122B2AD8122B59D801A225
:101B8C0052F823F00B1C0008E51B0008F71B00089B
:101B9C00391C00083F1C00083F1C00083F1C0008B3
:101BAC003F1C00083F1C00083F1C00083F1C00089D
:101BBC003F1C00083F1C00083F1C00083F1C00088D
:101BCC003F1C00083F1C0008ED1B0008011C00080E
:101BDC00794A934213D02CE03B68DB683B6229E0E6
:101BEC003B68DB6804333B6224E03B68DB6808330A
:101BFC003B621FE03B68DB680C333B621AE03B68DE
:101C0C009B68002B02D104233B6213E03B689B686A
:101C1C00012B05D108233B627B68FA691A6109E044
:101C2C0008233B627B68FA695A6103E000233B623C
:101C3C0000E000BFBB69FF2B01D87B6801E07B682B
:101C4C0004337B61BB69FF2B02D87B6A9B0002E0EB
:101C5C007B6A083B9B003B617B691A680F213B69DF
:101C6C0001FA03F3DB431A40396A3B6901FA03F3C7
:101C7C001A437B691A603B685B6803F08053002B46
:101C8C0000F0B1804D4B9B694C4A43F001039361CA
:101C9C004A4B9B6903F00103BB60BB68484A7B6AF3
:101CAC009B08023352F82330FB607B6A03F003037A
:101CBC009B000F2202FA03F3DB43FA681340FB602C
:101CCC007B68404A934213D07B683F4A93420DD0C5
:101CDC007B683E4A934207D07B683D4A934201D1D0
:101CEC00032306E0042304E0022302E0012300E0C6
:101CFC0000237A6A02F0030292009340FA681343BD
:101D0C00FB602F497B6A9B080233FA6841F8232059
:101D1C003B685B6803F48033002B06D02D4B1A68AC
:101D2C002C49BB6913430B6006E02A4B1A68BB694C
:101D3C00DB43284913400B603B685B6803F40033BA
:101D4C00002B06D0234B5A682249BB6913434B60C6
:101D5C0006E0204B5A68BB69DB431E4913404B60BD
:101D6C003B685B6803F48013002B06D0194B9A6810
:101D7C001849BB6913438B6006E0164B9A68BB6924
:101D8C00DB43144913408B603B685B6803F400131E
:101D9C00002B21D00F4BDA680E49BB691343CB6083
:101DAC0021E000BF000032100000311000002210B2
:101DBC000000211000001210000011100010024051
:101DCC000000014000080140000C014000100140DF
:101DDC0000140140000401400B4BDA68BB69DB4383
:101DEC0009491340CB607B6A01337B623B681A68FC
:101DFC007B6A22FA03F3002B7FF48EAE00BF00BF88
:101E0C002C37BD4680BC70470004014080B483B0C1
:101E1C0000AF78600B467B8013467B707B78002B81
:101E2C0003D07A887B681A6103E07B881A047B688C
:101E3C001A6100BF0C37BD4680BC704780B586B0B8
:101E4C0000AF78607B68002B01D101236CE27B68CA
:101E5C001B6803F00103002B00F08780924B5B683A
:101E6C0003F00C03042B0CD08F4B5B6803F00C03BA
:101E7C00082B12D18C4B5B6803F48033B3F5803F95
:101E8C000BD1894B1B6803F40033002B6CD07B689F
:101E9C005B68002B68D1012346E27B685B68B3F575
:101EAC00803F06D1804B1B687F4A43F4803313601C
:101EBC002EE07B685B68002B0CD17B4B1B687A4A4D
:101ECC0023F480331360784B1B68774A23F4802308
:101EDC0013601DE07B685B68B3F5A02F0CD1724BCF
:101EEC001B68714A43F4802313606F4B1B686E4A66
:101EFC0043F4803313600BE06B4B1B686A4A23F48A
:101F0C0080331360684B1B68674A23F4802313608B
:101F1C007B685B68002B13D0FFF7E2FC386108E0AC
:101F2C00FFF7DEFC02463B69D31A642B01D903236D
:101F3C00FAE15D4B1B6803F40033002BF0D014E086
:101F4C00FFF7CEFC386108E0FFF7CAFC02463B699C
:101F5C00D31A642B01D90323E6E1534B1B6803F41A
:101F6C000033002BF0D100E000BF7B681B6803F04E
:101F7C000203002B63D04C4B5B6803F00C03002B6B
:101F8C000BD0494B5B6803F00C03082B1CD1464B60
:101F9C005B6803F48033002B16D1434B1B6803F0B2
:101FAC000203002B05D07B681B69012B01D0012398
:101FBC00BAE13D4B1B6823F0F8027B685B69DB00E0
:101FCC00394913430B603AE07B681B69002B20D026
:101FDC00364B01221A60FFF783FC386108E0FFF7EB
:101FEC007FFC02463B69D31A022B01D903239BE1E8
:101FFC002D4B1B6803F00203002BF0D02A4B1B68FF
:10200C0023F0F8027B685B69DB00274913430B6004
:10201C0015E0264B00221A60FFF762FC386108E0DD
:10202C00FFF75EFC02463B69D31A022B01D903234E
:10203C007AE11D4B1B6803F00203002BF0D17B6887
:10204C001B6803F00803002B3AD07B689B69002BBC
:10205C0019D0174B01221A60FFF742FC386108E0D7
:10206C00FFF73EFC02463B69D31A022B01D903232E
:10207C005AE10D4B5B6A03F00203002BF0D00120F8
:10208C0000F0D8FA1CE00A4B00221A60FFF728FC7B
:10209C0038610FE0FFF724FC02463B69D31A022B90
:1020AC0008D9032340E100BF001002400000424267
:1020BC00800442429E4B5B6A03F00203002BE9D181
:1020CC007B681B6803F00403002B00F0A680002340
:1020DC00FB75974BDB6903F08053002B0DD1944BB0
:1020EC00DB69934A43F08053D361914BDB6903F076
:1020FC008053BB60BB680123FB758E4B1B6803F4DC
:10210C008073002B18D18B4B1B688A4A43F4807365
:10211C001360FFF7E5FB386108E0FFF7E1FB0246CF
:10212C003B69D31A642B01D90323FDE0814B1B6857
:10213C0003F48073002BF0D07B68DB68012B06D195
:10214C007B4B1B6A7A4A43F0010313622DE07B68D8
:10215C00DB68002B0CD1764B1B6A754A23F001030C
:10216C001362734B1B6A724A23F0040313621CE064
:10217C007B68DB68052B0CD16D4B1B6A6C4A43F0FA
:10218C00040313626A4B1B6A694A43F0010313622E
:10219C000BE0674B1B6A664A23F001031362644B26
:1021AC001B6A634A23F0040313627B68DB68002B11
:1021BC0015D0FFF795FB38610AE0FFF791FB02465B
:1021CC003B69D31A41F28832934201D90323ABE025
:1021DC00574B1B6A03F00203002BEED014E0FFF701
:1021EC007FFB38610AE0FFF77BFB02463B69D31AA1
:1021FC0041F28832934201D9032395E04C4B1B6A80
:10220C0003F00203002BEED1FB7D012B05D1484BD3
:10221C00DB69474A23F08053D3617B68DB69002B71
:10222C0000F08180424B5B6803F00C03082B61D0FB
:10223C007B68DB69022B46D13F4B00221A60FFF70B
:10224C004FFB386108E0FFF74BFB02463B69D31AA2
:10225C00022B01D9032367E0354B1B6803F0007395
:10226C00002BF0D17B681B6AB3F5803F08D1304B53
:10227C005B6823F400327B689B682D4913434B60E9
:10228C002B4B5B6823F474127B68196A7B685B6A5E
:10229C000B43274913434B60274B01221A60FFF76E
:1022AC001FFB386108E0FFF71BFB02463B69D31AA2
:1022BC00022B01D9032337E01D4B1B6803F000737D
:1022CC00002BF0D02FE01C4B00221A60FFF708FB0C
:1022DC00386108E0FFF704FB02463B69D31A022B76
:1022EC0001D9032320E0124B1B6803F00073002B71
:1022FC00F0D118E07B68DB69012B01D1012313E0DD
:10230C000B4B5B68FB60FB6803F480327B681B6AD9
:10231C009A4206D1FB6803F470127B685B6A9A429E
:10232C0001D0012300E0002318461837BD4680BDBC
:10233C0000100240007000406000424280B584B042
:10234C0000AF786039607B68002B01D10123D0E0AD
:10235C006A4B1B6803F007033A689A4210D9674B23
:10236C001B6823F0070265493B6813430B60634B02
:10237C001B6803F007033A689A4201D00123B8E0C6
:10238C007B681B6803F00203002B20D07B681B6862
:10239C0003F00403002B05D0594B5B68584A43F4F7
:1023AC00E06353607B681B6803F00803002B05D0C7
:1023BC00534B5B68524A43F460535360504B5B6819
:1023CC0023F0F0027B689B684D4913434B607B689C
:1023DC001B6803F00103002B40D07B685B68012B6A
:1023EC0007D1474B1B6803F40033002B15D1012395
:1023FC007FE07B685B68022B07D1414B1B6803F0C5
:10240C000073002B09D1012373E03D4B1B6803F0D3
:10241C000203002B01D101236BE0394B5B6823F0E5
:10242C0003027B685B68364913434B60FFF758FA2D
:10243C00F8600AE0FFF754FA0246FB68D31A41F23F
:10244C008832934201D9032353E02D4B5B6803F090
:10245C000C027B685B689B009A42EBD1274B1B6894
:10246C0003F007033A689A4210D2244B1B6823F0FE
:10247C00070222493B6813430B60204B1B6803F097
:10248C0007033A689A4201D0012332E07B681B684B
:10249C0003F00403002B08D0194B5B6823F4E062B3
:1024AC007B68DB68164913434B607B681B6803F041
:1024BC000803002B09D0124B5B6823F460527B6835
:1024CC001B69DB000E4913434B6000F021F80246F8
:1024DC000B4B5B681B0903F00F030A49CB5C22FA18
:1024EC0003F3094A1360094B1B681846FFF7B6F94A
:1024FC00002318461037BD4680BD00BF00200240A7
:10250C000010024028430008080000200C000020A6
:10251C0090B48AB000AF2A4B3C1D0FCB84E80F005F
:10252C0040F201233B800023FB610023BB610023AD
:10253C007B6200237B6100233B62224B5B68FB6167
:10254C00FB6903F00C03042B02D0082B03D02DE005
:10255C001D4B3B622DE0FB699B0C03F00F0307F155
:10256C002802134413F8243C7B61FB6903F4803389
:10257C00002B13D0134B5B685B0C03F0010307F1CA
:10258C002802134413F8283CBB617B690E4A02FBFA
:10259C0003F2BB69B2FBF3F37B6204E07B690B4A89
:1025AC0002FB03F37B627B6A3B6202E0064B3B62FD
:1025BC0000BF3B6A18462837BD4690BC704700BF29
:1025CC00084300080010024000127A0000093D0088
:1025DC0080B400AF024B1B681846BD4680BC7047E8
:1025EC000800002080B500AFFFF7F2FF0246054B54
:1025FC005B681B0A03F007030349CB5C22FA03F365
:10260C00184680BD001002403843000880B500AF6A
:10261C00FFF7DEFF0246054B5B68DB0A03F007039E
:10262C000349CB5C22FA03F3184680BD001002402C
:10263C003843000880B485B000AF78600A4B1B6843
:10264C000A4AA2FB03235B0A7A6802FB03F3FB60D2
:10265C0000BFFB685A1EFA60002BF9D100BF00BF07
:10266C001437BD4680BC704708000020D34D621063
:10267C0080B582B000AF78607B68002B01D101235C
:10268C0076E07B685B6A002B08D17B685B68B3F5EE
:10269C00827F09D07B680022DA6105E07B6800222A
:1026AC001A617B6800225A617B6800229A627B68FF
:1026BC0093F85130DBB2002B06D17B68002283F8F3
:1026CC0050207868FEF794FF7B68022283F8512033
:1026DC007B681B681A687B681B6822F040021A60D2
:1026EC007B685B6803F482727B689B6803F4044329
:1026FC001A437B68DB6803F400631A437B681B692D
:10270C0003F002031A437B685B6903F001031A436D
:10271C007B689B6903F400731A437B68DB6903F0E5
:10272C0038031A437B681B6A03F0800342EA0301F7
:10273C007B689B6A03F400527B681B680A431A602F
:10274C007B689B691A0C7B681B6802F004025A6058
:10275C007B681B68DA697B681B6822F40062DA61AB
:10276C007B6800225A657B68012283F85120002384
:10277C0018460837BD4680BD80B588B000AFF860FC
:10278C00B9603B601346FB800023FB77FB6893F832
:10279C005030012B01D1022326E1FB68012283F882
:1027AC005020FFF79DF8B861FB88FB82FB6893F81B
:1027BC005130DBB2012B02D00223FB770BE1BB685B
:1027CC00002B02D0FB88002B02D10123FB7702E106
:1027DC00FB68032283F85120FB6800225A65FB68D2
:1027EC00BA681A63FB68FA889A86FB68FA88DA86F4
:1027FC00FB6800229A63FB6800229A87FB68002220
:10280C00DA87FB6800225A64FB6800221A64FB68B2
:10281C009B68B3F5004F0FD1FB681B681A68FB6807
:10282C001B6822F040021A60FB681B681A68FB6880
:10283C001B6842F480421A60FB681B681B6803F03B
:10284C004003402B07D0FB681B681A68FB681B68A9
:10285C0042F040021A60FB68DB68B3F5006F4BD1A5
:10286C00FB685B68002B02D0FB8A012B3ED1FB6816
:10287C001B6B1A88FB681B68DA60FB681B6B9A1C65
:10288C00FB681A63FB68DB8E9BB2013B9AB2FB6858
:10289C00DA862BE0FB681B689B6803F00203022BB3
:1028AC0012D1FB681B6B1A88FB681B68DA60FB682B
:1028BC001B6B9A1CFB681A63FB68DB8E9BB2013B9B
:1028CC009AB2FB68DA8611E0FFF70AF80246BB6998
:1028DC00D31A3A689A4203D83B68B3F1FF3F02D14E
:1028EC003B68002B02D10323FB7774E0FB68DB8E83
:1028FC009BB2002BCED14CE0FB685B68002B02D066
:10290C00FB8A012B40D1FB681A6BFB681B680C33EC
:10291C0012781A70FB681B6B5A1CFB681A63FB68F5
:10292C00DB8E9BB2013B9AB2FB68DA862CE0FB682B
:10293C001B689B6803F00203022B13D1FB681A6B14
:10294C00FB681B680C3312781A70FB681B6B5A1CE3
:10295C00FB681A63FB68DB8E9BB2013B9AB2FB6887
:10296C00DA8611E0FEF7BCFF0246BB69D31A3A685F
:10297C009A4203D83B68B3F1FF3F02D13B68002B6E
:10298C0002D10323FB7726E0FB68DB8E9BB2002B86
:10299C00CDD1BA693968F86800F0B8FB0346002B52
:1029AC0002D0FB6820225A65FB689B68002B0AD179
:1029BC0000233B61FB681B68DB683B61FB681B68A1
:1029CC009B683B613B69FB685B6D002B02D001236C
:1029DC00FB7700E000BFFB68012283F85120FB6805
:1029EC00002283F85020FB7F18462037BD4680BD5F
:1029FC0080B588B002AFF860B9603B601346FB80CD
:102A0C000023FB75FB685B68B3F5827F12D1FB6812
:102A1C009B68002B0ED1FB68042283F85120FA88A6
:102A2C003B6800931346BA68B968F86800F0F1F88F
:102A3C000346EAE0FB6893F85030012B01D10223E6
:102A4C00E3E0FB68012283F85020FEF749FF386170
:102A5C00FB6893F85130DBB2012B02D00223FB75DB
:102A6C00CAE0BB68002B02D0FB88002B02D10123EB
:102A7C00FB75C1E0FB68042283F85120FB6800223F
:102A8C005A65FB68BA689A63FB68FA889A87FB6890
:102A9C00FA88DA87FB6800221A63FB6800229A86A0
:102AAC00FB680022DA86FB6800221A64FB680022AD
:102ABC005A64FB689B68B3F5004F0FD1FB681B6829
:102ACC001A68FB681B6822F040021A60FB681B68DE
:102ADC001A68FB681B6822F480421A60FB681B684A
:102AEC001B6803F04003402B07D0FB681B681A6877
:102AFC00FB681B6842F040021A60FB68DB68002B25
:102B0C0062D12EE0FB681B689B6803F00103012B6C
:102B1C0015D1FB681B6803F10C02FB689B6B1278E8
:102B2C00D2B21A70FB689B6B5A1CFB689A63FB68E9
:102B3C00DB8F9BB2013B9AB2FB68DA8711E0FEF7A0
:102B4C00CFFE02463B69D31A3A689A4203D83B68D7
:102B5C00B3F1FF3F02D13B68002B02D10323FB757D
:102B6C004AE0FB68DB8F9BB2002BCBD131E0FB68DA
:102B7C001B689B6803F00103012B13D1FB681B68D6
:102B8C00DA68FB689B6B92B21A80FB689B6B9A1C91
:102B9C00FB689A63FB68DB8F9BB2013B9AB2FB68C4
:102BAC00DA8711E0FEF79CFE02463B69D31A3A68BD
:102BBC009A4203D83B68B3F1FF3F02D13B68002B2C
:102BCC0002D10323FB7517E0FB68DB8F9BB2002B54
:102BDC00CDD13A693968F86800F046FA0346002B03
:102BEC0002D0FB6820225A65FB685B6D002B02D07B
:102BFC000123FB7500E000BFFB68012283F8512024
:102C0C00FB68002283F85020FB7D18461837BD4620
:102C1C0080BD80B58CB000AFF860B9607A607B8005
:102C2C000123FB62002387F82B30FB6893F85030AC
:102C3C00012B01D102238AE1FB68012283F8502089
:102C4C00FEF74EFE7862FB6893F8513087F823301C
:102C5C00FB685B68FB617B887B8397F82330012BD7
:102C6C000FD0FB69B3F5827F07D1FB689B68002B03
:102C7C0003D197F82330042B03D0022387F82B3091
:102C8C005BE1BB68002B05D07B68002B02D07B88F6
:102C9C00002B03D1012387F82B304EE1FB6893F80E
:102CAC005130DBB2042B03D0FB68052283F8512092
:102CBC00FB6800225A65FB687A689A63FB687A881D
:102CCC00DA87FB687A889A87FB68BA681A63FB68AC
:102CDC007A88DA86FB687A889A86FB6800221A64FE
:102CEC00FB6800225A64FB681B681B6803F04003F6
:102CFC00402B07D0FB681B681A68FB681B6842F006
:102D0C0040021A60FB68DB68B3F5006F78D1FB6892
:102D1C005B68002B02D07B8B012B66D1FB681B6B95
:102D2C001A88FB681B68DA60FB681B6B9A1CFB68D3
:102D3C001A63FB68DB8E9BB2013B9AB2FB68DA86A6
:102D4C0053E0FB681B689B6803F00203022B1BD14A
:102D5C00FB68DB8E9BB2002B16D0FB6A012B13D1C8
:102D6C00FB681B6B1A88FB681B68DA60FB681B6BC3
:102D7C009A1CFB681A63FB68DB8E9BB2013B9AB210
:102D8C00FB68DA860023FB62FB681B689B6803F018
:102D9C000103012B19D1FB68DB8F9BB2002B14D0E4
:102DAC00FB681B68DA68FB689B6B92B21A80FB6845
:102DBC009B6B9A1CFB689A63FB68DB8F9BB2013B95
:102DCC009AB2FB68DA870123FB62FEF789FD0246A3
:102DDC007B6AD31ABA6B9A4207D8BB6BB3F1FF3F2D
:102DEC0003D0032387F82B30A7E0FB68DB8E9BB264
:102DFC00002BA6D1FB68DB8F9BB2002BA1D17CE012
:102E0C00FB685B68002B02D07B8B012B6BD1FB68C2
:102E1C001A6BFB681B680C3312781A70FB681B6BFF
:102E2C005A1CFB681A63FB68DB8E9BB2013B9AB29F
:102E3C00FB68DA8657E0FB681B689B6803F00203AB
:102E4C00022B1CD1FB68DB8E9BB2002B17D0FB6ACC
:102E5C00012B14D1FB681A6BFB681B680C331278BE
:102E6C001A70FB681B6B5A1CFB681A63FB68DB8EC1
:102E7C009BB2013B9AB2FB68DA860023FB62FB68CB
:102E8C001B689B6803F00103012B19D1FB68DB8FD6
:102E9C009BB2002B14D0FB681B68DA68FB689B6B39
:102EAC00D2B21A70FB689B6B5A1CFB689A63FB6866
:102EBC00DB8F9BB2013B9AB2FB68DA870123FB6282
:102ECC00FEF70EFD02467B6AD31ABA6B9A4203D800
:102EDC00BB6BB3F1FF3F02D1BB6B002B03D10323C0
:102EEC0087F82B3029E0FB68DB8E9BB2002BA2D13C
:102EFC00FB68DB8F9BB2002B9DD17A6AB96BF868AB
:102F0C0000F004F90346002B06D0012387F82B3080
:102F1C00FB6820225A6510E0FB689B68002B0BD1E4
:102F2C0000237B61FB681B68DB687B61FB681B68AB
:102F3C009B687B617B6900E000BFFB68012283F822
:102F4C005120FB68002283F8502097F82B3018464C
:102F5C003037BD4680BD000080B588B000AFF8604A
:102F6C00B9603B601346FB71FEF7BAFC0246BB6AC4
:102F7C009B1A3A681344FB61FEF7B2FCB861394BFB
:102F8C001B685B011B0DFA6902FB03F37B6154E0C8
:102F9C003B68B3F1FF3F50D0FEF7A2FC0246BB6981
:102FAC00D31AFA699A4202D9FB69002B3DD1FB680E
:102FBC001B685A68FB681B6822F0E0025A60FB68C9
:102FCC005B68B3F5827F11D1FB689B68B3F5004F4A
:102FDC0004D0FB689B68B3F5806F07D1FB681B6856
:102FEC001A68FB681B6822F040021A60FB689B6A37
:102FFC00B3F5005F0FD1FB681B681A68FB681B6890
:10300C0022F400521A60FB681B681A68FB681B6884
:10301C0042F400521A60FB68012283F85120FB68CD
:10302C00002283F85020032317E07B69002B01D189
:10303C000023FB617B69013B7B61FB681B689A6821
:10304C00BB681340BA689A420CBF01230023DBB261
:10305C001A46FB799A429BD1002318462037BD466D
:10306C0080BD00BF0800002080B586B002AFF860BC
:10307C00B9607A60FB685B68B3F5827F11D1FB683D
:10308C009B68B3F5004F04D0FB689B68B3F5806F69
:10309C0007D1FB681B681A68FB681B6822F04002AA
:1030AC001A60FB685B68B3F5827F17D1FB689B687D
:1030BC00B3F5806F12D17B680093BB6800220121AD
:1030CC00F868FFF749FF0346002B1AD0FB685B6DCD
:1030DC0043F02002FB685A65032313E07B680093DE
:1030EC00BB6800228021F868FFF736FF0346002BEF
:1030FC0007D0FB685B6D43F02002FB685A65032325
:10310C0000E0002318461037BD4680BD80B586B060
:10311C0002AFF860B9607A607B680093BB680022EC
:10312C008021F868FFF718FF0346002B07D0FB68D7
:10313C005B6D43F02002FB685A65032300E000231B
:10314C0018461037BD4680BD80B582B000AF7860A0
:10315C007B68002B01D101233FE07B6893F83D3065
:10316C00DBB2002B06D17B68002283F83C20786808
:10317C00FEF788FA7B68242283F83D207B681B6865
:10318C00DA687B681B6822F40052DA60786800F019
:10319C0005F97B681B681A697B681B6822F49042EE
:1031AC001A617B681B685A697B681B6822F02A02CB
:1031BC005A617B681B68DA687B681B6842F40052B2
:1031CC00DA607B6800221A647B68202283F83D2039
:1031DC007B68202283F83E20002318460837BD4622
:1031EC0080BD80B58AB002AFF860B9603B60134611
:1031FC00FB8000237B61FB6893F83D30DBB2202B16
:10320C007CD1BB68002B02D0FB88002B01D10123A1
:10321C0075E0FB6893F83C30012B01D102236EE082
:10322C00FB68012283F83C20FB6800221A64FB68CF
:10323C00212283F83D20FEF753FB7861FB68FA8866
:10324C009A84FB68FA88DA84FB689B68B3F5805F24
:10325C0008D1FB681B69002B04D10023FB61BB6800
:10326C00BB6103E0BB68FB610023BB61FB68002210
:10327C0083F83C202AE03B6800937B690022802184
:10328C00F86800F040F80346002B01D0032336E029
:10329C00FB69002B0BD1BB691B881A46FB681B68AA
:1032AC00C2F308025A60BB690233BB6107E0FB69D9
:1032BC001A78FB681B685A60FB690133FB61FB6879
:1032CC00DB8C9BB2013B9AB2FB68DA84FB68DB8C2B
:1032DC009BB2002BCFD13B6800937B69002240212D
:1032EC00F86800F010F80346002B01D0032306E029
:1032FC00FB68202283F83D20002300E002231846BF
:10330C002037BD4680BD80B584B000AFF860B96091
:10331C003B601346FB712CE0BB69B3F1FF3F28D037
:10332C00BB69002B07D0FEF7DBFA02463B68D31AC9
:10333C00BA699A421DD2FB681B68DA68FB681B6885
:10334C0022F4D072DA60FB681B685A69FB681B6850
:10335C0022F001025A61FB68202283F83D20FB68B1
:10336C00202283F83E20FB68002283F83C200323B4
:10337C000FE0FB681B681A68BB681340BA689A4276
:10338C000CBF01230023DBB21A46FB799A42C3D04F
:10339C00002318461037BD4680BD000080B584B0B0
:1033AC0000AF78607B681B681B6923F440517B6815
:1033BC00DA687B681B680A431A617B689A687B68C9
:1033CC001B691A437B685B691343BB607B681B6892
:1033DC00DB6823F4B05323F00C037A681268B968E5
:1033EC000B43D3607B681B685B6923F440717B687B
:1033FC009A697B681B680A435A617B681B682C4A74
:10340C00934203D1FFF702F9F86002E0FFF7EAF804
:10341C00F860FA6813469B0013449A001A447B68C0
:10342C005B689B00B2FBF3F3224AA2FB03235B090C
:10343C001901FA6813469B0013449A001A447B68DE
:10344C005B689B00B2FBF3F21A4BA3FB02035B0914
:10345C00642000FB03F3D31A1B013233154AA2FB81
:10346C0003235B0903F0F0031944FA6813469B002D
:10347C0013449A001A447B685B689B00B2FBF3F21E
:10348C000C4BA3FB02035B09642000FB03F3D31A70
:10349C001B013233074AA2FB03235B0903F00F0223
:1034AC007B681B680A449A6000BF1037BD4680BD1C
:1034BC00003801401F85EB51014B1868704700BF65
:1034CC001400002070B500260C4D0D4C641BA4108C
:1034DC00A64209D100F05CFC00260A4D0A4C641B84
:1034EC00A410A64205D170BD55F8043B984701368F
:1034FC00EEE755F8043B98470136F2E774430008B1
:10350C007443000874430008784300080A4491424D
:10351C0000F1FF3300D1704710B511F8014B914207
:10352C0003F8014FF9D110BD03460244934200D178
:10353C00704703F8011BF9E70EB46FF0004100B5BA
:10354C009CB01DAB02900690079104910848094964
:10355C0053F8042B0591006802A9019300F068F858
:10356C000022029B1A701CB05DF804EB03B070478C
:10357C00140000200802FFFF2DE9F0478E688246F8
:10358C009E420C4690461F4638D88A8912F4906F9A
:10359C0032D0256809690133A5EB010965694B44F3
:1035AC0005EB450505EBD5756D109D4238BF1D46E5
:1035BC00530531D5294600F045FB064650B90C237E
:1035CC004FF0FF30CAF80030A38943F04003A381C9
:1035DC00BDE8F0874A462169FFF798FFA38923F4D9
:1035EC00906343F08003A38126614E4426603E46DF
:1035FC006561A5EB0905A560BE4200D93E46324681
:10360C004146206800F0B8FAA36822689B1B32443C
:10361C000020A3602260DBE72A4600F06DFB064623
:10362C000028E1D15046216900F0C0FAC7E700003C
:10363C002DE9F04F98468B8907461B060D4614461C
:10364C009DB00ED50B6963B9402100F0FBFA2860E0
:10365C00286120B90C233B604FF0FF30D1E04023B0
:10366C006B610023099320238DF8293030234FF010
:10367C000109CDF80C80DFF8A4818DF82A3023469F
:10368C009A4613F8012B0AB1252AF9D1BAEB040B8F
:10369C000BD05B46224629463846FFF76DFF0130BA
:1036AC0000F0AA80099A5A4409929AF80030002B2B
:1036BC0000F0A28000234FF0FF32CDE905230AF180
:1036CC00010A049307938DF853301A93544605223C
:1036DC0014F8011B514800F041FA049AD8B9D006ED
:1036EC0044BF20238DF85330110744BF2B238DF892
:1036FC0053309AF800302A2B15D0544600204FF046
:10370C000A0C079A214611F8013B303B092B4ED984
:10371C00B0B1079214E0A0EB080309FA03F31343CA
:10372C00A2460493D2E7039B191D1B680391002B3F
:10373C00BBBF5B4242F0020207930793B8BF0492EF
:10374C0023782E2B0CD163782A2B35D1039B023492
:10375C001A1D1B680392002BB8BF4FF0FF33059363
:10376C00DFF8C8A003225046217800F0F7F940B1E9
:10377C004023A0EB0A0003FA00F0049B013403433E
:10378C00049314F8011B062225488DF8281000F02C
:10379C00E5F9002838D0234B1BBB039B073323F0E0
:1037AC00070308330393099B3344099367E70C46DB
:1037BC0001200CFB0232A5E700234FF00A0C19463E
:1037CC0001340593204610F8012B303A092A03D90D
:1037DC00002BC5D00591C3E7044601230CFB012146
:1037EC00F0E703AB00932A4638460F4B04A9AFF31E
:1037FC000080421C0646D6D1AB895B063FF52CAF48
:10380C0009981DB0BDE8F08F03AB00932A463846EB
:10381C00054B04A900F07CF8EBE700BF404300081F
:10382C004A430008000000008535000846430008A4
:10383C002DE9F047164699468A680B69074693426C
:10384C00B8BF1346336091F843200C46DDF8208056
:10385C000AB1013333602368990642BF33680233DF
:10386C003360256815F0060506D104F1190AE368E2
:10387C0032689B1AAB4228DC94F84320131E226852
:10388C0018BF012392062DD44946384604F1430251
:10389C00C047013020D02368E56803F00603042BF1
:1038AC0018BF002532684FF00006A36808BFAD1A98
:1038BC00226908BF25EAE5759342C4BF9B1AED182F
:1038CC001A34B5421AD1002008E001235246494669
:1038DC003846C047013003D14FF0FF30BDE8F087C8
:1038EC000135C4E73020E11881F843005A1C94F8E4
:1038FC0045102244023382F84310C5E701232246C7
:10390C0049463846C0470130E6D00136D9E70000B9
:10391C002DE9FF470C46277E9146782F80469A4624
:10392C000C9904F1430207D8622F0AD8002F00F03B
:10393C00D980582F00F0A48004F1420684F842701C
:10394C003AE0A7F16303152BF6D801A050F823F049
:10395C00B5390008C939000845390008453900084F
:10396C004539000845390008C939000845390008AF
:10397C00453900084539000845390008D73A000890
:10398C00F9390008B93A00084539000845390008EA
:10399C00F93A000845390008F9390008453900089A
:1039AC0045390008C13A00080B6804F142061A1D9B
:1039BC001B680A6084F842300123A4E0256808687B
:1039CC002E0600F104030AD505680B60002D03DAFE
:1039DC002D236D4284F843300A235E4819E015F01C
:1039EC00400F05680B6018BF2DB2EFE70B68256818
:1039FC00181D0860280601D51D6802E06906FBD574
:103A0C001D886F2F0CBF08230A235248002184F80D
:103A1C0043106668002EA8BF2168A660A4BF21F0E1
:103A2C00040121600DB9002E4DD01646B5FBF3F103
:103A3C0003FB1157C75D06F8017D2F46BB420D46AF
:103A4C00F4D9082B0BD12368DF0708D523696168EB
:103A5C009942DEBF302306F8013C06F1FF36921B7B
:103A6C0022614B4621464046CDF800A003AAFFF741
:103A7C00DFFE01304CD14FF0FF3004B0BDE8F087D1
:103A8C00344884F845700E68236856F8045B1F06AA
:103A9C000E6014D5D90744BF43F0200323601DB931
:103AAC00236823F0200323601023AFE7236843F03F
:103ABC00200323607823284884F84530E3E75E062A
:103ACC0048BFADB2E6E71646BBE70B6826681D1D7E
:103ADC0060690D6035061B6801D5186002E071063F
:103AEC00FBD51880002316462361BAE70B681A1D14
:103AFC000A601E6800213046626800F02FF808B199
:103B0C00801B606063682361002384F84330A8E75E
:103B1C003246494640462369D0470130ABD0236832
:103B2C009B0713D4E068039B9842B8BF1846A4E7E0
:103B3C000123324649464046D04701309BD00135DF
:103B4C00E36803995B1AAB42F2DCEBE7002504F166
:103B5C001906F5E75143000862430008034610B507
:103B6C00C9B202449342184601D1002003E0047804
:103B7C0001338C42F6D110BD884210B501EB020422
:103B8C0002D98442234607D8431EA14208D011F81B
:103B9C00012B03F8012FF8E7014602448A4200D1B9
:103BAC0010BD13F8014D02F8014DF7E738B5054685
:103BBC00002943D051F8043C0C1F002BB8BFE4186B
:103BCC0000F0D0F81E4A1368104633B963601460D5
:103BDC002846BDE8384000F0CBB8A3420AD921688A
:103BEC006218934201BF1A685B68521822606360C6
:103BFC000460EDE71A465B680BB1A342FAD9116871
:103C0C005018A0420BD12068014450188342116017
:103C1C00DED118685B68014411605360D8E702D9A3
:103C2C000C232B60D4E7206821188B4201BF196844
:103C3C005B680918216063605460C9E738BD00BF38
:103C4C004C010020F8B5CD1C25F0030508350C2DD2
:103C5C0038BF0C25002D064601DBA94203D90C23E5
:103C6C0033600020F8BD00F07DF821490A68144645
:103C7C009CB9204F3B6823B92146304600F062F8CE
:103C8C0038602946304600F05DF8431C23D10C23E4
:103C9C003046336000F06CF8E3E723685B1B17D405
:103CAC000B2B03D923601C44256004E06368A242FB
:103CBC000CBF0B605360304600F05AF804F10B0057
:103CCC00231D20F00700C21ACCD01B1AA350C9E741
:103CDC0022466468CCE7C41C24F00304A042E3D061
:103CEC00211A304600F02EF80130DDD1CFE700BFAD
:103CFC004C01002050010020F8B5074614460E4632
:103D0C0021B91146BDE8F840FFF79CBF22B9FFF777
:103D1C004DFF25462846F8BD00F030F8A0420FD2E2
:103D2C0021463846FFF78EFF05460028F2D0314673
:103D3C002246FFF7EBFB31463846FFF737FFE9E742
:103D4C003546E7E738B50023054D044608462B6099
:103D5C00FDF70CFD431C02D12B6803B1236038BD69
:103D6C0028020020014800F011B800BF30020020EA
:103D7C00014800F00CB800BF3002002051F8043CA0
:103D8C00181F002BBCBF0B58C018704770477047EA
:103D9C00F8B500BFF8BC08BC9E467047F8B500BF2C
:083DAC00F8BC08BC9E467047FC
:103DB4000D0A2A2A2A2A2A2A2A2A2A2A2A2A2A2A9C
:103DC4002A2A2A2A2A2A2A2A2A2A2A2A2A2A2A2A4F
:103DD4002A2A2A2A2A2A2A2A2A2A2A2A2A2A2A2A3F
:103DE4000D0A00004352433A0D0A0909456E616207
:103DF4006C65642C2032204279746573200D0A00AE
:103E04004352433A0D0A0909456E61626C65642C9C
:103E140020312042797465200D0A00004352433A50
:103E24000D0A090944697361626C6564200D0A0016
:103E3400454E41413A0D0A090950303A0925640DAD
:103E44000A090950313A0925640D0A090950323A20
:103E54000925640D0A090950333A0925640D0A0934
:103E64000950343A0925640D0A090950353A0925DF
:103E7400640D0A00454E5F5258414444523A0D0ABB
:103E8400090950303A0925640D0A090950313A09E3
:103E940025640D0A090950323A0925640D0A0909F5
:103EA40050333A0925640D0A090950343A09256446
:103EB4000D0A090950353A0925640D0A000000006D
:103EC40053455455505F41573A0D0A09092564205A
:103ED4006279746573200D0A0000000052465F4346
:103EE400483A0D0A09092564204348200D0A0000B8
:103EF4004461746120526174653A0D0A0909324DB6
:103F0400627073200D0A0000446174612052617470
:103F1400653A0D0A0909314D627073200D0A0000DB
:103F240052465F5057523A0D0A09092D31386442FE
:103F3400200D0A0052465F5057523A0D0A09092DC6
:103F440031326442200D0A0052465F5057523A0DF6
:103F54000A09092D366442200D0A000052465F50BA
:103F640057523A0D0A0909306442200D0A00000034
:103F740052585F50697065302041646472733A0D21
:103F84000A0909253032582C253032582C25303274
:103F9400582C253032582C2530325820200D0A0058
:103FA40052585F50697065312041646472733A0DF0
:103FB4000A0909253032582C253032582C25303244
:103FC400582C253032582C2530325820200D0A0028
:103FD40052585F50697065322041646472733A0DBF
:103FE4000A090978782C78782C78782C78782C251C
:103FF40030325820200D0A0052585F5069706533E2
:104004002041646472733A0D0A090978782C78782F
:104014002C78782C78782C2530325820200D0A0002
:1040240052585F50697065342041646472733A0D6C
:104034000A090978782C78782C78782C78782C25CB
:1040440030325820200D0A0052585F50697065358F
:104054002041646472733A0D0A090978782C7878DF
:104064002C78782C78782C2530325820200D0A00B2
:1040740054582041646472733A0D0A090925303298
:10408400582C253032582C253032582C25303258B3
:104094002C2530325820200D0A00000052585F5061
:1040A400575F50303A0D0A09092564206279746516
:1040B40073200D0A0000000052585F50575F5031C2
:1040C4003A0D0A09092564206279746573200D0A82
:1040D4000000000052585F50575F50323A0D0A09F1
:1040E400092564206279746573200D0A00000000BC
:1040F40052585F50575F50333A0D0A09092564201E
:104104006279746573200D0A0000000052585F50F4
:10411400575F50343A0D0A090925642062797465A1
:1041240073200D0A0000000052585F50575F50354D
:104134003A0D0A09092564206279746573200D0A11
:104144000000000044594E50445F706970653A0D98
:104154000A090950303A0925640D0A090950313A0F
:104164000925640D0A090950323A0925640D0A0922
:104174000950333A0925640D0A090950343A0925CE
:10418400640D0A090950353A0925640D0A00000036
:10419400454E5F44504C3A0D0A0909456E61626C04
:1041A4006564200D0A000000454E5F44504C3A0DF2
:1041B4000A090944697361626C6564200D0A000090
:1041C400454E5F41434B5F5041593A0D0A09094539
:1041D4006E61626C6564200D0A000000454E5F410B
:1041E400434B5F5041593A0D0A09094469736162AE
:1041F4006C6564200D0A00000D0A2D2D2D2D2D2D2A
:104204002D2D2D2D2D2D2D2D2D2D2D2D2D2D2D2DDA
:104214002D2D2D0D0A000000535441545553207286
:1042240065673A0D0A090952585F44523A0909254B
:10423400640D0A090954585F44533A090925640D69
:104244000A09094D41585F52543A090925640D0A77
:10425400090952585F505F4E4F3A0925640D0A0907
:104264000954585F46554C4C3A0925640D0A000020
:10427400434F4E464947207265673A0D0A09095073
:1042840057525F55503A090925640D0A09095052DD
:10429400494D5F52583A0925640D0A004649464F74
:1042A40020537461747573207265673A0D0A0909A5
:1042B40054585F46554C4C3A090925640D0A0909BE
:1042C40054585F454D5054593A090925640D0A095B
:1042D4000952585F46554C4C3A090925640D0A09A0
:1042E4000952585F454D5054593A090925640D0A3D
:1042F40000000000566572692047656C69796F7229
:104304000D0A000002030405060708090A0B0C0D38
:104314000E0F10100A0B0C0D0E0F100011121314B7
:104324001516000000000000000000000102030454
:10433400060708090000000001020304232D302BA6
:104344002000686C4C006566674546470030313292
:1043540033343536373839414243444546003031E9
:104364003233343536373839616263646566000048
:04437400310100080B
:044378000D0100082B
:10437C007A000000000000000024F400100000008F
:10438C0001000000180000200000000000000000E8
:10439C000000000000000000000000000000000011
:1043AC000000000000000000000000000000000001
:1043BC0000000000000000000000000000000000F1
:1043CC0000000000000000000000000000000000E1
:1043DC0000000000000000000000000000000000D1
:0843EC000000000000000000C9
:04000005080017F1E7
:00000001FF
